{
  "contractName": "AaveResolver",
  "abi": [
    {
      "anonymous": false,
      "inputs": [
        {
          "indexed": true,
          "internalType": "address",
          "name": "token",
          "type": "address"
        },
        {
          "indexed": false,
          "internalType": "uint256",
          "name": "tokenAmt",
          "type": "uint256"
        },
        {
          "indexed": true,
          "internalType": "uint256",
          "name": "rateMode",
          "type": "uint256"
        },
        {
          "indexed": false,
          "internalType": "uint256",
          "name": "getId",
          "type": "uint256"
        },
        {
          "indexed": false,
          "internalType": "uint256",
          "name": "setId",
          "type": "uint256"
        }
      ],
      "name": "LogBorrow",
      "type": "event"
    },
    {
      "anonymous": false,
      "inputs": [
        {
          "indexed": true,
          "internalType": "address",
          "name": "token",
          "type": "address"
        },
        {
          "indexed": false,
          "internalType": "uint256",
          "name": "tokenAmt",
          "type": "uint256"
        },
        {
          "indexed": false,
          "internalType": "uint256",
          "name": "getId",
          "type": "uint256"
        },
        {
          "indexed": false,
          "internalType": "uint256",
          "name": "setId",
          "type": "uint256"
        }
      ],
      "name": "LogDeposit",
      "type": "event"
    },
    {
      "anonymous": false,
      "inputs": [
        {
          "indexed": false,
          "internalType": "address[]",
          "name": "tokens",
          "type": "address[]"
        }
      ],
      "name": "LogEnableCollateral",
      "type": "event"
    },
    {
      "anonymous": false,
      "inputs": [
        {
          "indexed": true,
          "internalType": "address",
          "name": "token",
          "type": "address"
        },
        {
          "indexed": false,
          "internalType": "uint256",
          "name": "tokenAmt",
          "type": "uint256"
        },
        {
          "indexed": true,
          "internalType": "uint256",
          "name": "rateMode",
          "type": "uint256"
        },
        {
          "indexed": false,
          "internalType": "uint256",
          "name": "getId",
          "type": "uint256"
        },
        {
          "indexed": false,
          "internalType": "uint256",
          "name": "setId",
          "type": "uint256"
        }
      ],
      "name": "LogPayback",
      "type": "event"
    },
    {
      "anonymous": false,
      "inputs": [
        {
          "indexed": true,
          "internalType": "address",
          "name": "token",
          "type": "address"
        },
        {
          "indexed": false,
          "internalType": "uint256",
          "name": "rateMode",
          "type": "uint256"
        }
      ],
      "name": "LogSwapRateMode",
      "type": "event"
    },
    {
      "anonymous": false,
      "inputs": [
        {
          "indexed": true,
          "internalType": "address",
          "name": "token",
          "type": "address"
        },
        {
          "indexed": false,
          "internalType": "uint256",
          "name": "tokenAmt",
          "type": "uint256"
        },
        {
          "indexed": false,
          "internalType": "uint256",
          "name": "getId",
          "type": "uint256"
        },
        {
          "indexed": false,
          "internalType": "uint256",
          "name": "setId",
          "type": "uint256"
        }
      ],
      "name": "LogWithdraw",
      "type": "event"
    },
    {
      "inputs": [
        {
          "internalType": "address",
          "name": "token",
          "type": "address"
        },
        {
          "internalType": "uint256",
          "name": "amt",
          "type": "uint256"
        },
        {
          "internalType": "uint256",
          "name": "getId",
          "type": "uint256"
        },
        {
          "internalType": "uint256",
          "name": "setId",
          "type": "uint256"
        }
      ],
      "name": "deposit",
      "outputs": [
        {
          "internalType": "string",
          "name": "_eventName",
          "type": "string"
        },
        {
          "internalType": "bytes",
          "name": "_eventParam",
          "type": "bytes"
        }
      ],
      "stateMutability": "payable",
      "type": "function",
      "payable": true
    },
    {
      "inputs": [
        {
          "internalType": "address",
          "name": "token",
          "type": "address"
        },
        {
          "internalType": "uint256",
          "name": "amt",
          "type": "uint256"
        },
        {
          "internalType": "uint256",
          "name": "getId",
          "type": "uint256"
        },
        {
          "internalType": "uint256",
          "name": "setId",
          "type": "uint256"
        }
      ],
      "name": "withdraw",
      "outputs": [
        {
          "internalType": "string",
          "name": "_eventName",
          "type": "string"
        },
        {
          "internalType": "bytes",
          "name": "_eventParam",
          "type": "bytes"
        }
      ],
      "stateMutability": "payable",
      "type": "function",
      "payable": true
    },
    {
      "inputs": [
        {
          "internalType": "address",
          "name": "token",
          "type": "address"
        },
        {
          "internalType": "uint256",
          "name": "amt",
          "type": "uint256"
        },
        {
          "internalType": "uint256",
          "name": "rateMode",
          "type": "uint256"
        },
        {
          "internalType": "uint256",
          "name": "getId",
          "type": "uint256"
        },
        {
          "internalType": "uint256",
          "name": "setId",
          "type": "uint256"
        }
      ],
      "name": "borrow",
      "outputs": [
        {
          "internalType": "string",
          "name": "_eventName",
          "type": "string"
        },
        {
          "internalType": "bytes",
          "name": "_eventParam",
          "type": "bytes"
        }
      ],
      "stateMutability": "payable",
      "type": "function",
      "payable": true
    },
    {
      "inputs": [
        {
          "internalType": "address",
          "name": "token",
          "type": "address"
        },
        {
          "internalType": "uint256",
          "name": "amt",
          "type": "uint256"
        },
        {
          "internalType": "uint256",
          "name": "rateMode",
          "type": "uint256"
        },
        {
          "internalType": "uint256",
          "name": "getId",
          "type": "uint256"
        },
        {
          "internalType": "uint256",
          "name": "setId",
          "type": "uint256"
        }
      ],
      "name": "payback",
      "outputs": [
        {
          "internalType": "string",
          "name": "_eventName",
          "type": "string"
        },
        {
          "internalType": "bytes",
          "name": "_eventParam",
          "type": "bytes"
        }
      ],
      "stateMutability": "payable",
      "type": "function",
      "payable": true
    },
    {
      "inputs": [
        {
          "internalType": "address[]",
          "name": "tokens",
          "type": "address[]"
        }
      ],
      "name": "enableCollateral",
      "outputs": [
        {
          "internalType": "string",
          "name": "_eventName",
          "type": "string"
        },
        {
          "internalType": "bytes",
          "name": "_eventParam",
          "type": "bytes"
        }
      ],
      "stateMutability": "payable",
      "type": "function",
      "payable": true
    },
    {
      "inputs": [
        {
          "internalType": "address",
          "name": "token",
          "type": "address"
        },
        {
          "internalType": "uint256",
          "name": "rateMode",
          "type": "uint256"
        }
      ],
      "name": "swapBorrowRateMode",
      "outputs": [
        {
          "internalType": "string",
          "name": "_eventName",
          "type": "string"
        },
        {
          "internalType": "bytes",
          "name": "_eventParam",
          "type": "bytes"
        }
      ],
      "stateMutability": "payable",
      "type": "function",
      "payable": true
    }
  ],
  "bytecode": "0x608060405234801561001057600080fd5b506122ce806100206000396000f3fe6080604052600436106100555760003560e01c80634532d7761461005a5780634e5e60e7146101a15780636abcd3de146102f257806394ba89a214610443578063ce88b43914610576578063da2b65c8146106bd575b600080fd5b6100ba6004803603608081101561007057600080fd5b81019080803573ffffffffffffffffffffffffffffffffffffffff16906020019092919080359060200190929190803590602001909291908035906020019092919050505061081b565b604051808060200180602001838103835285818151815260200191508051906020019080838360005b838110156100fe5780820151818401526020810190506100e3565b50505050905090810190601f16801561012b5780820380516001836020036101000a031916815260200191505b50838103825284818151815260200191508051906020019080838360005b83811015610164578082015181840152602081019050610149565b50505050905090810190601f1680156101915780820380516001836020036101000a031916815260200191505b5094505050505060405180910390f35b61020b600480360360a08110156101b757600080fd5b81019080803573ffffffffffffffffffffffffffffffffffffffff16906020019092919080359060200190929190803590602001909291908035906020019092919080359060200190929190505050610bc5565b604051808060200180602001838103835285818151815260200191508051906020019080838360005b8381101561024f578082015181840152602081019050610234565b50505050905090810190601f16801561027c5780820380516001836020036101000a031916815260200191505b50838103825284818151815260200191508051906020019080838360005b838110156102b557808201518184015260208101905061029a565b50505050905090810190601f1680156102e25780820380516001836020036101000a031916815260200191505b5094505050505060405180910390f35b61035c600480360360a081101561030857600080fd5b81019080803573ffffffffffffffffffffffffffffffffffffffff16906020019092919080359060200190929190803590602001909291908035906020019092919080359060200190929190505050610e72565b604051808060200180602001838103835285818151815260200191508051906020019080838360005b838110156103a0578082015181840152602081019050610385565b50505050905090810190601f1680156103cd5780820380516001836020036101000a031916815260200191505b50838103825284818151815260200191508051906020019080838360005b838110156104065780820151818401526020810190506103eb565b50505050905090810190601f1680156104335780820380516001836020036101000a031916815260200191505b5094505050505060405180910390f35b61048f6004803603604081101561045957600080fd5b81019080803573ffffffffffffffffffffffffffffffffffffffff169060200190929190803590602001909291905050506110db565b604051808060200180602001838103835285818151815260200191508051906020019080838360005b838110156104d35780820151818401526020810190506104b8565b50505050905090810190601f1680156105005780820380516001836020036101000a031916815260200191505b50838103825284818151815260200191508051906020019080838360005b8381101561053957808201518184015260208101905061051e565b50505050905090810190601f1680156105665780820380516001836020036101000a031916815260200191505b5094505050505060405180910390f35b6105d66004803603608081101561058c57600080fd5b81019080803573ffffffffffffffffffffffffffffffffffffffff1690602001909291908035906020019092919080359060200190929190803590602001909291905050506112ad565b604051808060200180602001838103835285818151815260200191508051906020019080838360005b8381101561061a5780820151818401526020810190506105ff565b50505050905090810190601f1680156106475780820380516001836020036101000a031916815260200191505b50838103825284818151815260200191508051906020019080838360005b83811015610680578082015181840152602081019050610665565b50505050905090810190601f1680156106ad5780820380516001836020036101000a031916815260200191505b5094505050505060405180910390f35b610734600480360360208110156106d357600080fd5b81019080803590602001906401000000008111156106f057600080fd5b82018360208201111561070257600080fd5b8035906020019184602083028401116401000000008311171561072457600080fd5b90919293919293905050506116bf565b604051808060200180602001838103835285818151815260200191508051906020019080838360005b8381101561077857808201518184015260208101905061075d565b50505050905090810190601f1680156107a55780820380516001836020036101000a031916815260200191505b50838103825284818151815260200191508051906020019080838360005b838110156107de5780820151818401526020810190506107c3565b50505050905090810190601f16801561080b5780820380516001836020036101000a031916815260200191505b5094505050505060405180910390f35b606080600061082a8587611962565b9050600073178113104fecbcd7ff8669a0150721e231f0fd4b73ffffffffffffffffffffffffffffffffffffffff16630261bf8b6040518163ffffffff1660e01b815260040160206040518083038186803b15801561088857600080fd5b505afa15801561089c573d6000803e3d6000fd5b505050506040513d60208110156108b257600080fd5b81019080805190602001909291905050509050600073eeeeeeeeeeeeeeeeeeeeeeeeeeeeeeeeeeeeeeee73ffffffffffffffffffffffffffffffffffffffff168973ffffffffffffffffffffffffffffffffffffffff16149050600081610919578961092f565b73c02aaa39b223fe8d0a0e5c4f27ead9083c756cc25b9050600081905060008173ffffffffffffffffffffffffffffffffffffffff166370a08231306040518263ffffffff1660e01b8152600401808273ffffffffffffffffffffffffffffffffffffffff16815260200191505060206040518083038186803b15801561099f57600080fd5b505afa1580156109b3573d6000803e3d6000fd5b505050506040513d60208110156109c957600080fd5b810190808051906020019092919050505090508473ffffffffffffffffffffffffffffffffffffffff166369328dec8488306040518463ffffffff1660e01b8152600401808473ffffffffffffffffffffffffffffffffffffffff1681526020018381526020018273ffffffffffffffffffffffffffffffffffffffff1681526020019350505050600060405180830381600087803b158015610a6b57600080fd5b505af1158015610a7f573d6000803e3d6000fd5b5050505060008273ffffffffffffffffffffffffffffffffffffffff166370a08231306040518263ffffffff1660e01b8152600401808273ffffffffffffffffffffffffffffffffffffffff16815260200191505060206040518083038186803b158015610aec57600080fd5b505afa158015610b00573d6000803e3d6000fd5b505050506040513d6020811015610b1657600080fd5b81019080805190602001909291905050509050610b338183611a1c565b9650610b40858489611a30565b610b4a8a88611ab2565b6040518060600160405280602c815260200161223a602c913998508c878c8c604051602001808573ffffffffffffffffffffffffffffffffffffffff16815260200184815260200183815260200182815260200194505050505060405160208183030381529060405297505050505050505094509492505050565b6060806000610bd48588611962565b9050600073178113104fecbcd7ff8669a0150721e231f0fd4b73ffffffffffffffffffffffffffffffffffffffff16630261bf8b6040518163ffffffff1660e01b815260040160206040518083038186803b158015610c3257600080fd5b505afa158015610c46573d6000803e3d6000fd5b505050506040513d6020811015610c5c57600080fd5b81019080805190602001909291905050509050600073eeeeeeeeeeeeeeeeeeeeeeeeeeeeeeeeeeeeeeee73ffffffffffffffffffffffffffffffffffffffff168a73ffffffffffffffffffffffffffffffffffffffff16149050600081610cc3578a610cd9565b73c02aaa39b223fe8d0a0e5c4f27ead9083c756cc25b905060008190507fffffffffffffffffffffffffffffffffffffffffffffffffffffffffffffffff8514610d0d5784610d18565b610d17828b611b46565b5b94508215610d2c57610d2b838287611c96565b5b610d37818587611d03565b8373ffffffffffffffffffffffffffffffffffffffff1663573ade8183878d306040518563ffffffff1660e01b8152600401808573ffffffffffffffffffffffffffffffffffffffff1681526020018481526020018381526020018273ffffffffffffffffffffffffffffffffffffffff168152602001945050505050600060405180830381600087803b158015610dce57600080fd5b505af1158015610de2573d6000803e3d6000fd5b50505050610df08886611ab2565b6040518060600160405280603381526020016122666033913996508b858b8b8b604051602001808673ffffffffffffffffffffffffffffffffffffffff16815260200185815260200184815260200183815260200182815260200195505050505050604051602081830303815290604052955050505050509550959350505050565b6060806000610e818588611962565b9050600073178113104fecbcd7ff8669a0150721e231f0fd4b73ffffffffffffffffffffffffffffffffffffffff16630261bf8b6040518163ffffffff1660e01b815260040160206040518083038186803b158015610edf57600080fd5b505afa158015610ef3573d6000803e3d6000fd5b505050506040513d6020811015610f0957600080fd5b81019080805190602001909291905050509050600073eeeeeeeeeeeeeeeeeeeeeeeeeeeeeeeeeeeeeeee73ffffffffffffffffffffffffffffffffffffffff168a73ffffffffffffffffffffffffffffffffffffffff16149050600081610f70578a610f86565b73c02aaa39b223fe8d0a0e5c4f27ead9083c756cc25b90508273ffffffffffffffffffffffffffffffffffffffff1663a415bcad82868c610c9c306040518663ffffffff1660e01b8152600401808673ffffffffffffffffffffffffffffffffffffffff1681526020018581526020018481526020018361ffff1681526020018273ffffffffffffffffffffffffffffffffffffffff16815260200195505050505050600060405180830381600087803b15801561102d57600080fd5b505af1158015611041573d6000803e3d6000fd5b50505050611050828286611a30565b61105a8785611ab2565b6040518060600160405280603281526020016122086032913995508a848a8a8a604051602001808673ffffffffffffffffffffffffffffffffffffffff168152602001858152602001848152602001838152602001828152602001955050505050506040516020818303038152906040529450505050509550959350505050565b606080600073178113104fecbcd7ff8669a0150721e231f0fd4b73ffffffffffffffffffffffffffffffffffffffff16630261bf8b6040518163ffffffff1660e01b815260040160206040518083038186803b15801561113a57600080fd5b505afa15801561114e573d6000803e3d6000fd5b505050506040513d602081101561116457600080fd5b8101908080519060200190929190505050905060006001851461118857600161118b565b60025b60ff169050600061119c8783611b46565b111561122c578173ffffffffffffffffffffffffffffffffffffffff166394ba89a287876040518363ffffffff1660e01b8152600401808373ffffffffffffffffffffffffffffffffffffffff16815260200182815260200192505050600060405180830381600087803b15801561121357600080fd5b505af1158015611227573d6000803e3d6000fd5b505050505b6040518060400160405280602081526020017f4c6f6753776170526174654d6f646528616464726573732c75696e743235362981525093508585604051602001808373ffffffffffffffffffffffffffffffffffffffff16815260200182815260200192505050604051602081830303815290604052925050509250929050565b60608060006112bc8587611962565b9050600073178113104fecbcd7ff8669a0150721e231f0fd4b73ffffffffffffffffffffffffffffffffffffffff16630261bf8b6040518163ffffffff1660e01b815260040160206040518083038186803b15801561131a57600080fd5b505afa15801561132e573d6000803e3d6000fd5b505050506040513d602081101561134457600080fd5b81019080805190602001909291905050509050600073eeeeeeeeeeeeeeeeeeeeeeeeeeeeeeeeeeeeeeee73ffffffffffffffffffffffffffffffffffffffff168973ffffffffffffffffffffffffffffffffffffffff161490506000816113ab57896113c1565b73c02aaa39b223fe8d0a0e5c4f27ead9083c756cc25b90506000819050821561140f577fffffffffffffffffffffffffffffffffffffffffffffffffffffffffffffffff85146113fb57846113fd565b475b945061140a838287611c96565b6114e2565b7fffffffffffffffffffffffffffffffffffffffffffffffffffffffffffffffff851461143c57846114df565b8073ffffffffffffffffffffffffffffffffffffffff166370a08231306040518263ffffffff1660e01b8152600401808273ffffffffffffffffffffffffffffffffffffffff16815260200191505060206040518083038186803b1580156114a357600080fd5b505afa1580156114b7573d6000803e3d6000fd5b505050506040513d60208110156114cd57600080fd5b81019080805190602001909291905050505b94505b6114ed818587611d03565b8373ffffffffffffffffffffffffffffffffffffffff1663e8eda9df838730610c9c6040518563ffffffff1660e01b8152600401808573ffffffffffffffffffffffffffffffffffffffff1681526020018481526020018373ffffffffffffffffffffffffffffffffffffffff1681526020018261ffff168152602001945050505050600060405180830381600087803b15801561158a57600080fd5b505af115801561159e573d6000803e3d6000fd5b505050506115ab82611ea7565b61163c578373ffffffffffffffffffffffffffffffffffffffff16635a3b74b98360016040518363ffffffff1660e01b8152600401808373ffffffffffffffffffffffffffffffffffffffff168152602001821515815260200192505050600060405180830381600087803b15801561162357600080fd5b505af1158015611637573d6000803e3d6000fd5b505050505b6116468886611ab2565b6040518060600160405280602b81526020016121dd602b913996508a858a8a604051602001808573ffffffffffffffffffffffffffffffffffffffff1681526020018481526020018381526020018281526020019450505050506040516020818303038152906040529550505050505094509492505050565b606080600084849050905060008111611740576040517f08c379a00000000000000000000000000000000000000000000000000000000081526004018080602001828103825260148152602001807f302d746f6b656e732d6e6f742d616c6c6f77656400000000000000000000000081525060200191505060405180910390fd5b600073178113104fecbcd7ff8669a0150721e231f0fd4b73ffffffffffffffffffffffffffffffffffffffff16630261bf8b6040518163ffffffff1660e01b815260040160206040518083038186803b15801561179c57600080fd5b505afa1580156117b0573d6000803e3d6000fd5b505050506040513d60208110156117c657600080fd5b8101908080519060200190929190505050905060005b828110156118cf5760008787838181106117f257fe5b9050602002013573ffffffffffffffffffffffffffffffffffffffff169050600061181c82612004565b11801561182f575061182d81611ea7565b155b156118c1578273ffffffffffffffffffffffffffffffffffffffff16635a3b74b98260016040518363ffffffff1660e01b8152600401808373ffffffffffffffffffffffffffffffffffffffff168152602001821515815260200192505050600060405180830381600087803b1580156118a857600080fd5b505af11580156118bc573d6000803e3d6000fd5b505050505b5080806001019150506117dc565b506040518060400160405280601e81526020017f4c6f67456e61626c65436f6c6c61746572616c28616464726573735b5d2900008152509350858560405160200180806020018281038252848482818152602001925060200280828437600081840152601f19601f8201169050808301925050509350505050604051602081830303815290604052925050509250929050565b6000808314611a1257738a5419cfc711b2343c17a6abf4b2bafabb06957f73ffffffffffffffffffffffffffffffffffffffff1663a9c70eaa846040518263ffffffff1660e01b815260040180828152602001915050602060405180830381600087803b1580156119d257600080fd5b505af11580156119e6573d6000803e3d6000fd5b505050506040513d60208110156119fc57600080fd5b8101908080519060200190929190505050611a14565b815b905092915050565b6000611a288383612159565b905092915050565b8215611aad57611a41828383611d03565b8173ffffffffffffffffffffffffffffffffffffffff16632e1a7d4d826040518263ffffffff1660e01b815260040180828152602001915050600060405180830381600087803b158015611a9457600080fd5b505af1158015611aa8573d6000803e3d6000fd5b505050505b505050565b60008214611b4257738a5419cfc711b2343c17a6abf4b2bafabb06957f73ffffffffffffffffffffffffffffffffffffffff166361e3c94483836040518363ffffffff1660e01b81526004018083815260200182815260200192505050600060405180830381600087803b158015611b2957600080fd5b505af1158015611b3d573d6000803e3d6000fd5b505050505b5050565b600080600073fa3bd19110d986c5e5e9dd5f69362d05035d045b73ffffffffffffffffffffffffffffffffffffffff166328dd2d0186306040518363ffffffff1660e01b8152600401808373ffffffffffffffffffffffffffffffffffffffff1681526020018273ffffffffffffffffffffffffffffffffffffffff168152602001925050506101206040518083038186803b158015611be557600080fd5b505afa158015611bf9573d6000803e3d6000fd5b505050506040513d610120811015611c1057600080fd5b81019080805190602001909291908051906020019092919080519060200190929190805190602001909291908051906020019092919080519060200190929190805190602001909291908051906020019092919080519060200190929190505050505050505050925092505060018414611c8a5780611c8c565b815b9250505092915050565b8215611cfe578173ffffffffffffffffffffffffffffffffffffffff1663d0e30db0826040518263ffffffff1660e01b81526004016000604051808303818588803b158015611ce457600080fd5b505af1158015611cf8573d6000803e3d6000fd5b50505050505b505050565b8273ffffffffffffffffffffffffffffffffffffffff1663095ea7b383836040518363ffffffff1660e01b8152600401808373ffffffffffffffffffffffffffffffffffffffff16815260200182815260200192505050600060405180830381600087803b158015611d7457600080fd5b505af1925050508015611d85575060015b611ea1578273ffffffffffffffffffffffffffffffffffffffff1663095ea7b38360006040518363ffffffff1660e01b8152600401808373ffffffffffffffffffffffffffffffffffffffff16815260200182815260200192505050600060405180830381600087803b158015611dfb57600080fd5b505af1158015611e0f573d6000803e3d6000fd5b505050508273ffffffffffffffffffffffffffffffffffffffff1663095ea7b383836040518363ffffffff1660e01b8152600401808373ffffffffffffffffffffffffffffffffffffffff16815260200182815260200192505050600060405180830381600087803b158015611e8457600080fd5b505af1158015611e98573d6000803e3d6000fd5b50505050611ea2565b5b505050565b600073fa3bd19110d986c5e5e9dd5f69362d05035d045b73ffffffffffffffffffffffffffffffffffffffff166328dd2d0183306040518363ffffffff1660e01b8152600401808373ffffffffffffffffffffffffffffffffffffffff1681526020018273ffffffffffffffffffffffffffffffffffffffff168152602001925050506101206040518083038186803b158015611f4357600080fd5b505afa158015611f57573d6000803e3d6000fd5b505050506040513d610120811015611f6e57600080fd5b81019080805190602001909291908051906020019092919080519060200190929190805190602001909291908051906020019092919080519060200190929190805190602001909291908051906020019092919080519060200190929190505050909192939495969750909192939495965090919293949550909192939450909192935090919250909150905080915050919050565b600073fa3bd19110d986c5e5e9dd5f69362d05035d045b73ffffffffffffffffffffffffffffffffffffffff166328dd2d0183306040518363ffffffff1660e01b8152600401808373ffffffffffffffffffffffffffffffffffffffff1681526020018273ffffffffffffffffffffffffffffffffffffffff168152602001925050506101206040518083038186803b1580156120a057600080fd5b505afa1580156120b4573d6000803e3d6000fd5b505050506040513d6101208110156120cb57600080fd5b8101908080519060200190929190805190602001909291908051906020019092919080519060200190929190805190602001909291908051906020019092919080519060200190929190805190602001909291908051906020019092919050505090919293949596509091929394955090919293945090919293509091925090915090505080915050919050565b6000828211156121d1576040517f08c379a000000000000000000000000000000000000000000000000000000000815260040180806020018281038252601e8152602001807f536166654d6174683a207375627472616374696f6e206f766572666c6f77000081525060200191505060405180910390fd5b81830390509291505056fe4c6f674465706f73697428616464726573732c75696e743235362c75696e743235362c75696e74323536294c6f67426f72726f7728616464726573732c75696e743235362c75696e743235362c75696e743235362c75696e74323536294c6f67576974686472617728616464726573732c75696e743235362c75696e743235362c75696e74323536294c6f675061796261636b28616464726573732c75696e743235362c75696e743235362c75696e743235362c75696e7432353629a26469706673582212203d4b7511b2317ca2cf3e7257b16b8041c69f9d38492623f6e84635a3ecf4e82564736f6c63430007060033",
  "immutableReferences": {},
  "source": "// SPDX-License-Identifier: MIT\npragma solidity ^0.7.0;\n\n/**\n * @title Aave v2.\n * @dev Lending & Borrowing.\n */\n\nimport { TokenInterface } from \"../../common/interfaces.sol\";\nimport { Stores } from \"../../common/stores.sol\";\nimport { Helpers } from \"./helpers.sol\";\nimport { Events } from \"./events.sol\";\nimport { AaveInterface } from \"./interface.sol\";\n\n contract AaveResolver is Events, Helpers {\n    /**\n     * @dev Deposit ETH/ERC20_Token. check 2\n     * @notice Deposit a token to Aave v2 for lending / collaterization.\n     * @param token The address of the token to deposit.(For ETH: 0xEeeeeEeeeEeEeeEeEeEeeEEEeeeeEeeeeeeeEEeE)\n     * @param amt The amount of the token to deposit. (For max: `uint256(-1)`)\n     * @param getId ID to retrieve amt.\n     * @param setId ID stores the amount of tokens deposited.\n    */\n    function deposit(\n        address token,\n        uint256 amt,\n        uint256 getId,\n        uint256 setId\n    ) external payable returns (string memory _eventName, bytes memory _eventParam) {\n        uint _amt = getUint(getId, amt);\n\n        AaveInterface aave = AaveInterface(aaveProvider.getLendingPool());\n\n        bool isEth = token == ethAddr;\n        address _token = isEth ? wethAddr : token;\n\n        TokenInterface tokenContract = TokenInterface(_token);\n\n        if (isEth) {\n            _amt = _amt == uint(-1) ? address(this).balance : _amt;\n            convertEthToWeth(isEth, tokenContract, _amt);\n        } else {\n            _amt = _amt == uint(-1) ? tokenContract.balanceOf(address(this)) : _amt;\n        }\n\n        approve(tokenContract, address(aave), _amt);\n\n        aave.deposit(_token, _amt, address(this), referralCode);\n\n        if (!getIsColl(_token)) {\n            aave.setUserUseReserveAsCollateral(_token, true);\n        }\n\n        setUint(setId, _amt);\n\n        _eventName = \"LogDeposit(address,uint256,uint256,uint256)\";\n        _eventParam = abi.encode(token, _amt, getId, setId);\n    }\n\n    /**\n     * @dev Withdraw ETH/ERC20_Token.\n     * @notice Withdraw deposited token from Aave v2\n     * @param token The address of the token to withdraw.(For ETH: 0xEeeeeEeeeEeEeeEeEeEeeEEEeeeeEeeeeeeeEEeE)\n     * @param amt The amount of the token to withdraw. (For max: `uint256(-1)`)\n     * @param getId ID to retrieve amt.\n     * @param setId ID stores the amount of tokens withdrawn.\n    */\n    function withdraw(\n        address token,\n        uint256 amt,\n        uint256 getId,\n        uint256 setId\n    ) external payable returns (string memory _eventName, bytes memory _eventParam) {\n        uint _amt = getUint(getId, amt);\n\n        AaveInterface aave = AaveInterface(aaveProvider.getLendingPool());\n        bool isEth = token == ethAddr;\n        address _token = isEth ? wethAddr : token;\n\n        TokenInterface tokenContract = TokenInterface(_token);\n\n        uint initialBal = tokenContract.balanceOf(address(this));\n        aave.withdraw(_token, _amt, address(this));\n        uint finalBal = tokenContract.balanceOf(address(this));\n\n        _amt = sub(finalBal, initialBal);\n\n        convertWethToEth(isEth, tokenContract, _amt);\n        \n        setUint(setId, _amt);\n\n        _eventName = \"LogWithdraw(address,uint256,uint256,uint256)\";\n        _eventParam = abi.encode(token, _amt, getId, setId);\n    }\n\n    /**\n     * @dev Borrow ETH/ERC20_Token.\n     * @notice Borrow a token using Aave v2\n     * @param token The address of the token to borrow.(For ETH: 0xEeeeeEeeeEeEeeEeEeEeeEEEeeeeEeeeeeeeEEeE)\n     * @param amt The amount of the token to borrow.\n     * @param rateMode The type of borrow debt. (For Stable: 1, Variable: 2)\n     * @param getId ID to retrieve amt.\n     * @param setId ID stores the amount of tokens borrowed.\n    */\n    function borrow(\n        address token,\n        uint256 amt,\n        uint256 rateMode,\n        uint256 getId,\n        uint256 setId\n    ) external payable returns (string memory _eventName, bytes memory _eventParam) {\n        uint _amt = getUint(getId, amt);\n\n        AaveInterface aave = AaveInterface(aaveProvider.getLendingPool());\n\n        bool isEth = token == ethAddr;\n        address _token = isEth ? wethAddr : token;\n\n        aave.borrow(_token, _amt, rateMode, referralCode, address(this));\n        convertWethToEth(isEth, TokenInterface(_token), _amt);\n\n        setUint(setId, _amt);\n\n        _eventName = \"LogBorrow(address,uint256,uint256,uint256,uint256)\";\n        _eventParam = abi.encode(token, _amt, rateMode, getId, setId);\n    }\n\n    /**\n     * @dev Payback borrowed ETH/ERC20_Token.\n     * @notice Payback debt owed.\n     * @param token The address of the token to payback.(For ETH: 0xEeeeeEeeeEeEeeEeEeEeeEEEeeeeEeeeeeeeEEeE)\n     * @param amt The amount of the token to payback. (For max: `uint256(-1)`)\n     * @param rateMode The type of debt paying back. (For Stable: 1, Variable: 2)\n     * @param getId ID to retrieve amt.\n     * @param setId ID stores the amount of tokens paid back.\n    */\n    function payback(\n        address token,\n        uint256 amt,\n        uint256 rateMode,\n        uint256 getId,\n        uint256 setId\n    ) external payable returns (string memory _eventName, bytes memory _eventParam) {\n        uint _amt = getUint(getId, amt);\n\n        AaveInterface aave = AaveInterface(aaveProvider.getLendingPool());\n\n        bool isEth = token == ethAddr;\n        address _token = isEth ? wethAddr : token;\n\n        TokenInterface tokenContract = TokenInterface(_token);\n\n        _amt = _amt == uint(-1) ? getPaybackBalance(_token, rateMode) : _amt;\n\n        if (isEth) convertEthToWeth(isEth, tokenContract, _amt);\n\n        approve(tokenContract, address(aave), _amt);\n\n        aave.repay(_token, _amt, rateMode, address(this));\n\n        setUint(setId, _amt);\n\n        _eventName = \"LogPayback(address,uint256,uint256,uint256,uint256)\";\n        _eventParam = abi.encode(token, _amt, rateMode, getId, setId);\n    }\n\n    /**\n     * @dev Enable collateral\n     * @notice Enable an array of tokens as collateral\n     * @param tokens Array of tokens to enable collateral\n    */\n    function enableCollateral(\n        address[] calldata tokens\n    ) external payable returns (string memory _eventName, bytes memory _eventParam) {\n        uint _length = tokens.length;\n        require(_length > 0, \"0-tokens-not-allowed\");\n\n        AaveInterface aave = AaveInterface(aaveProvider.getLendingPool());\n\n        for (uint i = 0; i < _length; i++) {\n            address token = tokens[i];\n            if (getCollateralBalance(token) > 0 && !getIsColl(token)) {\n                aave.setUserUseReserveAsCollateral(token, true);\n            }\n        }\n\n        _eventName = \"LogEnableCollateral(address[])\";\n        _eventParam = abi.encode(tokens);\n    }\n\n    /**\n     * @dev Swap borrow rate mode\n     * @notice Swaps user borrow rate mode between variable and stable\n     * @param token The address of the token to swap borrow rate.(For ETH: 0xEeeeeEeeeEeEeeEeEeEeeEEEeeeeEeeeeeeeEEeE)\n     * @param rateMode Desired borrow rate mode. (Stable = 1, Variable = 2)\n    */\n    function swapBorrowRateMode(\n        address token,\n        uint rateMode\n    ) external payable returns (string memory _eventName, bytes memory _eventParam) {\n        AaveInterface aave = AaveInterface(aaveProvider.getLendingPool());\n\n        uint currentRateMode = rateMode == 1 ? 2 : 1;\n\n        if (getPaybackBalance(token, currentRateMode) > 0) {\n            aave.swapBorrowRateMode(token, rateMode);\n        }\n\n        _eventName = \"LogSwapRateMode(address,uint256)\";\n        _eventParam = abi.encode(token, rateMode);\n    }\n}\n\ncontract ConnectV2AaveV2 is AaveResolver {\n    string constant public name = \"AaveV2-v1.1\";\n}\n",
  "sourcePath": "/Users/udaybhanuprasad/Documents/nft/contracts/aave/v2/main.sol",
  "compiler": {
    "name": "solc",
    "version": "0.7.6+commit.7338295f.Emscripten.clang"
  },
  "schemaVersion": "3.4.4",
  "updatedAt": "2022-01-30T17:30:08.757Z",
  "networkType": "ethereum",
  "devdoc": {
    "kind": "dev",
    "methods": {
      "borrow(address,uint256,uint256,uint256,uint256)": {
        "details": "Borrow ETH/ERC20_Token.",
        "params": {
          "amt": "The amount of the token to borrow.",
          "getId": "ID to retrieve amt.",
          "rateMode": "The type of borrow debt. (For Stable: 1, Variable: 2)",
          "setId": "ID stores the amount of tokens borrowed.",
          "token": "The address of the token to borrow.(For ETH: 0xEeeeeEeeeEeEeeEeEeEeeEEEeeeeEeeeeeeeEEeE)"
        }
      },
      "deposit(address,uint256,uint256,uint256)": {
        "details": "Deposit ETH/ERC20_Token. check 2",
        "params": {
          "amt": "The amount of the token to deposit. (For max: `uint256(-1)`)",
          "getId": "ID to retrieve amt.",
          "setId": "ID stores the amount of tokens deposited.",
          "token": "The address of the token to deposit.(For ETH: 0xEeeeeEeeeEeEeeEeEeEeeEEEeeeeEeeeeeeeEEeE)"
        }
      },
      "enableCollateral(address[])": {
        "details": "Enable collateral",
        "params": {
          "tokens": "Array of tokens to enable collateral"
        }
      },
      "payback(address,uint256,uint256,uint256,uint256)": {
        "details": "Payback borrowed ETH/ERC20_Token.",
        "params": {
          "amt": "The amount of the token to payback. (For max: `uint256(-1)`)",
          "getId": "ID to retrieve amt.",
          "rateMode": "The type of debt paying back. (For Stable: 1, Variable: 2)",
          "setId": "ID stores the amount of tokens paid back.",
          "token": "The address of the token to payback.(For ETH: 0xEeeeeEeeeEeEeeEeEeEeeEEEeeeeEeeeeeeeEEeE)"
        }
      },
      "swapBorrowRateMode(address,uint256)": {
        "details": "Swap borrow rate mode",
        "params": {
          "rateMode": "Desired borrow rate mode. (Stable = 1, Variable = 2)",
          "token": "The address of the token to swap borrow rate.(For ETH: 0xEeeeeEeeeEeEeeEeEeEeeEEEeeeeEeeeeeeeEEeE)"
        }
      },
      "withdraw(address,uint256,uint256,uint256)": {
        "details": "Withdraw ETH/ERC20_Token.",
        "params": {
          "amt": "The amount of the token to withdraw. (For max: `uint256(-1)`)",
          "getId": "ID to retrieve amt.",
          "setId": "ID stores the amount of tokens withdrawn.",
          "token": "The address of the token to withdraw.(For ETH: 0xEeeeeEeeeEeEeeEeEeEeeEEEeeeeEeeeeeeeEEeE)"
        }
      }
    },
    "version": 1
  },
  "userdoc": {
    "kind": "user",
    "methods": {
      "borrow(address,uint256,uint256,uint256,uint256)": {
        "notice": "Borrow a token using Aave v2"
      },
      "deposit(address,uint256,uint256,uint256)": {
        "notice": "Deposit a token to Aave v2 for lending / collaterization."
      },
      "enableCollateral(address[])": {
        "notice": "Enable an array of tokens as collateral"
      },
      "payback(address,uint256,uint256,uint256,uint256)": {
        "notice": "Payback debt owed."
      },
      "swapBorrowRateMode(address,uint256)": {
        "notice": "Swaps user borrow rate mode between variable and stable"
      },
      "withdraw(address,uint256,uint256,uint256)": {
        "notice": "Withdraw deposited token from Aave v2"
      }
    },
    "version": 1
  }
}