{
  "contractName": "ConnectV2UniswapV3",
  "abi": [
    {
      "anonymous": false,
      "inputs": [
        {
          "indexed": true,
          "internalType": "uint256",
          "name": "tokenId",
          "type": "uint256"
        },
        {
          "indexed": false,
          "internalType": "uint256",
          "name": "liquidity",
          "type": "uint256"
        },
        {
          "indexed": false,
          "internalType": "uint256",
          "name": "amountA",
          "type": "uint256"
        },
        {
          "indexed": false,
          "internalType": "uint256",
          "name": "amountB",
          "type": "uint256"
        }
      ],
      "name": "LogDeposit",
      "type": "event"
    },
    {
      "anonymous": false,
      "inputs": [
        {
          "indexed": true,
          "internalType": "uint256",
          "name": "tokenId",
          "type": "uint256"
        },
        {
          "indexed": false,
          "internalType": "uint256",
          "name": "liquidity",
          "type": "uint256"
        },
        {
          "indexed": false,
          "internalType": "uint256",
          "name": "amountA",
          "type": "uint256"
        },
        {
          "indexed": false,
          "internalType": "uint256",
          "name": "amountB",
          "type": "uint256"
        }
      ],
      "name": "LogWithdraw",
      "type": "event"
    },
    {
      "inputs": [
        {
          "internalType": "uint256",
          "name": "tokenId",
          "type": "uint256"
        },
        {
          "internalType": "uint256",
          "name": "amountA",
          "type": "uint256"
        },
        {
          "internalType": "uint256",
          "name": "amountB",
          "type": "uint256"
        },
        {
          "internalType": "uint256",
          "name": "slippage",
          "type": "uint256"
        },
        {
          "internalType": "uint256[]",
          "name": "getIds",
          "type": "uint256[]"
        },
        {
          "internalType": "uint256",
          "name": "setId",
          "type": "uint256"
        }
      ],
      "name": "deposit",
      "outputs": [
        {
          "internalType": "string",
          "name": "_eventName",
          "type": "string"
        },
        {
          "internalType": "bytes",
          "name": "_eventParam",
          "type": "bytes"
        }
      ],
      "stateMutability": "payable",
      "type": "function"
    },
    {
      "inputs": [],
      "name": "name",
      "outputs": [
        {
          "internalType": "string",
          "name": "",
          "type": "string"
        }
      ],
      "stateMutability": "view",
      "type": "function"
    },
    {
      "inputs": [
        {
          "internalType": "uint256",
          "name": "tokenId",
          "type": "uint256"
        },
        {
          "internalType": "uint256",
          "name": "liquidity",
          "type": "uint256"
        },
        {
          "internalType": "uint256",
          "name": "amountAMin",
          "type": "uint256"
        },
        {
          "internalType": "uint256",
          "name": "amountBMin",
          "type": "uint256"
        },
        {
          "internalType": "uint256",
          "name": "getId",
          "type": "uint256"
        },
        {
          "internalType": "uint256[]",
          "name": "setIds",
          "type": "uint256[]"
        }
      ],
      "name": "withdraw",
      "outputs": [
        {
          "internalType": "string",
          "name": "_eventName",
          "type": "string"
        },
        {
          "internalType": "bytes",
          "name": "_eventParam",
          "type": "bytes"
        }
      ],
      "stateMutability": "payable",
      "type": "function"
    }
  ],
  "bytecode": "0x608060405234801561001057600080fd5b50611b84806100206000396000f3fe6080604052600436106100345760003560e01c806306fdde03146100395780630d7c8a0214610064578063f0234ea514610095575b600080fd5b34801561004557600080fd5b5061004e6100c6565b60405161005b91906114c8565b60405180910390f35b61007e60048036038101906100799190611024565b6100ff565b60405161008c9291906114ea565b60405180910390f35b6100af60048036038101906100aa91906110cb565b610222565b6040516100bd9291906114ea565b60405180910390f35b6040518060400160405280600c81526020017f556e697377617056332d7631000000000000000000000000000000000000000081525081565b60608060008914156101175761011430610341565b98505b61016185856000818110610154577f4e487b7100000000000000000000000000000000000000000000000000000000600052603260045260246000fd5b9050602002013589610496565b97506101ad858560018181106101a0577f4e487b7100000000000000000000000000000000000000000000000000000000600052603260045260246000fd5b9050602002013588610496565b965060008060006101c08c8c8c8c61054d565b9250925092506101d0868461059d565b6040518060600160405280602b8152602001611b24602b913994508b8383836040516020016102029493929190611600565b604051602081830303815290604052935050505097509795505050505050565b606080600089141561023a5761023730610341565b98505b6000610246868a610496565b90506000806102578c848c8c61062b565b915091506102a587876000818110610298577f4e487b7100000000000000000000000000000000000000000000000000000000600052603260045260246000fd5b905060200201358361059d565b6102ef878760018181106102e2577f4e487b7100000000000000000000000000000000000000000000000000000000600052603260045260246000fd5b905060200201358261059d565b6040518060600160405280602c8152602001611af8602c913994508b8383836040516020016103219493929190611592565b604051602081830303815290604052935050505097509795505050505050565b60008073c36442b4a4522e871399cd717abdd847ab11fe8873ffffffffffffffffffffffffffffffffffffffff166370a08231846040518263ffffffff1660e01b8152600401610391919061145b565b60206040518083038186803b1580156103a957600080fd5b505afa1580156103bd573d6000803e3d6000fd5b505050506040513d601f19601f820116820180604052508101906103e19190610fbf565b905073c36442b4a4522e871399cd717abdd847ab11fe8873ffffffffffffffffffffffffffffffffffffffff16632f745c598460018461042191906118da565b6040518363ffffffff1660e01b815260040161043e92919061149f565b60206040518083038186803b15801561045657600080fd5b505afa15801561046a573d6000803e3d6000fd5b505050506040513d601f19601f8201168201806040525081019061048e9190610fbf565b915050919050565b600080831461054357738a5419cfc711b2343c17a6abf4b2bafabb06957f73ffffffffffffffffffffffffffffffffffffffff1663a9c70eaa846040518263ffffffff1660e01b81526004016104ec9190611577565b602060405180830381600087803b15801561050657600080fd5b505af115801561051a573d6000803e3d6000fd5b505050506040513d601f19601f8201168201806040525081019061053e9190610fbf565b610545565b815b905092915050565b600080600080600061055e8961071b565b915091506105708983838b8b8b610890565b826fffffffffffffffffffffffffffffffff16925080955081965082975050505050509450945094915050565b6000821461062757738a5419cfc711b2343c17a6abf4b2bafabb06957f73ffffffffffffffffffffffffffffffffffffffff166361e3c94483836040518363ffffffff1660e01b81526004016105f49291906115d7565b600060405180830381600087803b15801561060e57600080fd5b505af1158015610622573d6000803e3d6000fd5b505050505b5050565b60008060006040518060a00160405280888152602001876fffffffffffffffffffffffffffffffff16815260200186815260200185815260200142815250905073c36442b4a4522e871399cd717abdd847ab11fe8873ffffffffffffffffffffffffffffffffffffffff16630c49ccbe826040518263ffffffff1660e01b81526004016106b89190611541565b6040805180830381600087803b1580156106d157600080fd5b505af11580156106e5573d6000803e3d6000fd5b505050506040513d601f19601f820116820180604052508101906107099190610fe8565b80935081945050505094509492505050565b60008060008073c36442b4a4522e871399cd717abdd847ab11fe8873ffffffffffffffffffffffffffffffffffffffff166399fbab8860e01b866040516024016107659190611577565b604051602081830303815290604052907bffffffffffffffffffffffffffffffffffffffffffffffffffffffff19166020820180517bffffffffffffffffffffffffffffffffffffffffffffffffffffffff83818316178352505050506040516107cf9190611444565b600060405180830381855afa9150503d806000811461080a576040519150601f19603f3d011682016040523d82523d6000602084013e61080f565b606091505b509150915081610854576040517f08c379a000000000000000000000000000000000000000000000000000000000815260040161084b90611521565b60405180910390fd5b808060200190518101906108689190611172565b9091929394959650909192939495509091925090915090505080945081955050505050915091565b60008060006108a1888888886109aa565b60006108ae898887610a94565b905060006108bd898888610a94565b905060006040518060c001604052808d81526020018a815260200189815260200184815260200183815260200142815250905073c36442b4a4522e871399cd717abdd847ab11fe8873ffffffffffffffffffffffffffffffffffffffff1663219f5d17826040518263ffffffff1660e01b815260040161093d919061155c565b606060405180830381600087803b15801561095757600080fd5b505af115801561096b573d6000803e3d6000fd5b505050506040513d601f19601f8201168201806040525081019061098f9190610f70565b80965081975082985050505050505096509650969350505050565b600073c02aaa39b223fe8d0a0e5c4f27ead9083c756cc273ffffffffffffffffffffffffffffffffffffffff168573ffffffffffffffffffffffffffffffffffffffff16149050600073c02aaa39b223fe8d0a0e5c4f27ead9083c756cc273ffffffffffffffffffffffffffffffffffffffff168573ffffffffffffffffffffffffffffffffffffffff16149050610a43828786610bce565b610a4e818685610bce565b610a6d8673c36442b4a4522e871399cd717abdd847ab11fe8886610c3b565b610a8c8573c36442b4a4522e871399cd717abdd847ab11fe8885610c3b565b505050505050565b600080610b1e8573ffffffffffffffffffffffffffffffffffffffff1663313ce5676040518163ffffffff1660e01b815260040160206040518083038186803b158015610ae057600080fd5b505afa158015610af4573d6000803e3d6000fd5b505050506040513d601f19601f82011682018060405250810190610b189190610fbf565b85610d8b565b9050610b3b81610b36670de0b6b3a764000086610db7565b610dcb565b9150610bc48573ffffffffffffffffffffffffffffffffffffffff1663313ce5676040518163ffffffff1660e01b815260040160206040518083038186803b158015610b8657600080fd5b505afa158015610b9a573d6000803e3d6000fd5b505050506040513d601f19601f82011682018060405250810190610bbe9190610fbf565b83610e0f565b9150509392505050565b8215610c36578173ffffffffffffffffffffffffffffffffffffffff1663d0e30db0826040518263ffffffff1660e01b81526004016000604051808303818588803b158015610c1c57600080fd5b505af1158015610c30573d6000803e3d6000fd5b50505050505b505050565b8273ffffffffffffffffffffffffffffffffffffffff1663095ea7b383836040518363ffffffff1660e01b8152600401610c7692919061149f565b600060405180830381600087803b158015610c9057600080fd5b505af1925050508015610ca1575060015b610d85578273ffffffffffffffffffffffffffffffffffffffff1663095ea7b38360006040518363ffffffff1660e01b8152600401610ce1929190611476565b600060405180830381600087803b158015610cfb57600080fd5b505af1158015610d0f573d6000803e3d6000fd5b505050508273ffffffffffffffffffffffffffffffffffffffff1663095ea7b383836040518363ffffffff1660e01b8152600401610d4e92919061149f565b600060405180830381600087803b158015610d6857600080fd5b505af1158015610d7c573d6000803e3d6000fd5b50505050610d86565b5b505050565b6000610daf82846012610d9e91906118da565b600a610daa9190611762565b610e3d565b905092915050565b6000610dc38383610e51565b905092915050565b6000670de0b6b3a7640000610dfd610de38585610e67565b6002670de0b6b3a7640000610df891906116de565b610e7d565b610e0791906116de565b905092915050565b6000826012610e1e91906118da565b600a610e2a9190611762565b82610e3591906116de565b905092915050565b6000610e498383610e67565b905092915050565b60008183610e5f91906118da565b905092915050565b60008183610e759190611880565b905092915050565b60008183610e8b9190611688565b905092915050565b600081519050610ea281611a6d565b92915050565b60008083601f840112610eba57600080fd5b8235905067ffffffffffffffff811115610ed357600080fd5b602083019150836020820283011115610eeb57600080fd5b9250929050565b600081519050610f0181611a84565b92915050565b600081519050610f1681611a9b565b92915050565b600081519050610f2b81611ab2565b92915050565b600081359050610f4081611ac9565b92915050565b600081519050610f5581611ac9565b92915050565b600081519050610f6a81611ae0565b92915050565b600080600060608486031215610f8557600080fd5b6000610f9386828701610f07565b9350506020610fa486828701610f46565b9250506040610fb586828701610f46565b9150509250925092565b600060208284031215610fd157600080fd5b6000610fdf84828501610f46565b91505092915050565b60008060408385031215610ffb57600080fd5b600061100985828601610f46565b925050602061101a85828601610f46565b9150509250929050565b600080600080600080600060c0888a03121561103f57600080fd5b600061104d8a828b01610f31565b975050602061105e8a828b01610f31565b965050604061106f8a828b01610f31565b95505060606110808a828b01610f31565b945050608088013567ffffffffffffffff81111561109d57600080fd5b6110a98a828b01610ea8565b935093505060a06110bc8a828b01610f31565b91505092959891949750929550565b600080600080600080600060c0888a0312156110e657600080fd5b60006110f48a828b01610f31565b97505060206111058a828b01610f31565b96505060406111168a828b01610f31565b95505060606111278a828b01610f31565b94505060806111388a828b01610f31565b93505060a088013567ffffffffffffffff81111561115557600080fd5b6111618a828b01610ea8565b925092505092959891949750929550565b600080600080600080600080610100898b03121561118f57600080fd5b600061119d8b828c01610f5b565b98505060206111ae8b828c01610e93565b97505060406111bf8b828c01610e93565b96505060606111d08b828c01610e93565b95505060806111e18b828c01610f1c565b94505060a06111f28b828c01610ef2565b93505060c06112038b828c01610ef2565b92505060e06112148b828c01610f07565b9150509295985092959890939650565b61122d8161190e565b82525050565b600061123e82611645565b611248818561165b565b93506112588185602086016119be565b61126181611a4f565b840191505092915050565b600061127782611645565b611281818561166c565b93506112918185602086016119be565b80840191505092915050565b6112a6816119ac565b82525050565b60006112b782611650565b6112c18185611677565b93506112d18185602086016119be565b6112da81611a4f565b840191505092915050565b60006112f2601983611677565b91507f6665746368696e6720706f736974696f6e73206661696c6564000000000000006000830152602082019050919050565b60a08201600082015161133b6000850182611426565b50602082015161134e6020850182611408565b5060408201516113616040850182611426565b5060608201516113746060850182611426565b5060808201516113876080850182611426565b50505050565b60c0820160008201516113a36000850182611426565b5060208201516113b66020850182611426565b5060408201516113c96040850182611426565b5060608201516113dc6060850182611426565b5060808201516113ef6080850182611426565b5060a082015161140260a0850182611426565b50505050565b6114118161193f565b82525050565b6114208161193f565b82525050565b61142f8161198a565b82525050565b61143e8161198a565b82525050565b6000611450828461126c565b915081905092915050565b60006020820190506114706000830184611224565b92915050565b600060408201905061148b6000830185611224565b611498602083018461129d565b9392505050565b60006040820190506114b46000830185611224565b6114c16020830184611435565b9392505050565b600060208201905081810360008301526114e281846112ac565b905092915050565b6000604082019050818103600083015261150481856112ac565b905081810360208301526115188184611233565b90509392505050565b6000602082019050818103600083015261153a816112e5565b9050919050565b600060a0820190506115566000830184611325565b92915050565b600060c082019050611571600083018461138d565b92915050565b600060208201905061158c6000830184611435565b92915050565b60006080820190506115a76000830187611435565b6115b46020830186611417565b6115c16040830185611435565b6115ce6060830184611435565b95945050505050565b60006040820190506115ec6000830185611435565b6115f96020830184611435565b9392505050565b60006080820190506116156000830187611435565b6116226020830186611435565b61162f6040830185611435565b61163c6060830184611435565b95945050505050565b600081519050919050565b600081519050919050565b600082825260208201905092915050565b600081905092915050565b600082825260208201905092915050565b60006116938261198a565b915061169e8361198a565b9250827fffffffffffffffffffffffffffffffffffffffffffffffffffffffffffffffff038211156116d3576116d26119f1565b5b828201905092915050565b60006116e98261198a565b91506116f48361198a565b92508261170457611703611a20565b5b828204905092915050565b6000808291508390505b600185111561175957808604811115611735576117346119f1565b5b60018516156117445780820291505b808102905061175285611a60565b9450611719565b94509492505050565b600061176d8261198a565b91506117788361198a565b92506117a57fffffffffffffffffffffffffffffffffffffffffffffffffffffffffffffffff84846117ad565b905092915050565b6000826117bd5760019050611879565b816117cb5760009050611879565b81600181146117e157600281146117eb5761181a565b6001915050611879565b60ff8411156117fd576117fc6119f1565b5b8360020a915084821115611814576118136119f1565b5b50611879565b5060208310610133831016604e8410600b841016171561184f5782820a90508381111561184a576118496119f1565b5b611879565b61185c848484600161170f565b92509050818404811115611873576118726119f1565b5b81810290505b9392505050565b600061188b8261198a565b91506118968361198a565b9250817fffffffffffffffffffffffffffffffffffffffffffffffffffffffffffffffff04831182151516156118cf576118ce6119f1565b5b828202905092915050565b60006118e58261198a565b91506118f08361198a565b925082821015611903576119026119f1565b5b828203905092915050565b60006119198261195b565b9050919050565b600061192b8261195b565b9050919050565b60008160020b9050919050565b60006fffffffffffffffffffffffffffffffff82169050919050565b600073ffffffffffffffffffffffffffffffffffffffff82169050919050565b600062ffffff82169050919050565b6000819050919050565b60006bffffffffffffffffffffffff82169050919050565b60006119b78261198a565b9050919050565b60005b838110156119dc5780820151818401526020810190506119c1565b838111156119eb576000848401525b50505050565b7f4e487b7100000000000000000000000000000000000000000000000000000000600052601160045260246000fd5b7f4e487b7100000000000000000000000000000000000000000000000000000000600052601260045260246000fd5b6000601f19601f8301169050919050565b60008160011c9050919050565b611a7681611920565b8114611a8157600080fd5b50565b611a8d81611932565b8114611a9857600080fd5b50565b611aa48161193f565b8114611aaf57600080fd5b50565b611abb8161197b565b8114611ac657600080fd5b50565b611ad28161198a565b8114611add57600080fd5b50565b611ae981611994565b8114611af457600080fd5b5056fe4c6f6757697468647261772875696e743235362c75696e743235362c75696e743235362c75696e74323536294c6f674465706f7369742875696e743235362c75696e743235362c75696e743235362c75696e7432353629a26469706673582212207de3301e8c0ae411ce4db8cb80844116104cbf3f88def9712174479499bbd86064736f6c63430008000033",
  "immutableReferences": {},
  "source": "// SPDX-License-Identifier: MIT\r\npragma solidity ^0.8.0;\r\npragma abicoder v2;\r\n\r\n/**\r\n * @title Uniswap v3.\r\n * @dev Decentralized Exchange.\r\n */\r\n\r\nimport {TokenInterface} from \"./common/interfaces.sol\";\r\nimport {Helpers} from \"./helpers.sol\";\r\nimport {Events} from \"./events.sol\";\r\n\r\ncontract UniswapResolver is Helpers, Events {\r\n\r\n     function deposit(\r\n        uint256 tokenId,\r\n        uint256 amountA,\r\n        uint256 amountB,\r\n        uint256 slippage,\r\n        uint256[] calldata getIds,\r\n        uint256 setId\r\n    )\r\n        external\r\n        payable\r\n        returns (string memory _eventName, bytes memory _eventParam)\r\n    {\r\n        if (tokenId == 0) tokenId = _getLastNftId(address(this));\r\n        amountA = getUint(getIds[0], amountA);\r\n        amountB = getUint(getIds[1], amountB);\r\n        (\r\n            uint256 _liquidity,\r\n            uint256 _amtA,\r\n            uint256 _amtB\r\n        ) = _addLiquidityWrapper(tokenId, amountA, amountB, slippage);\r\n        setUint(setId, _liquidity);\r\n\r\n        _eventName = \"LogDeposit(uint256,uint256,uint256,uint256)\";\r\n        _eventParam = abi.encode(tokenId, _liquidity, _amtA, _amtB);\r\n    }\r\n\r\n    /**\r\n     * @dev Decrease Liquidity\r\n     * @notice Decrease Liquidity of NFT Position\r\n     * @param tokenId NFT LP Token ID.\r\n     * @param liquidity LP Token amount.\r\n     * @param amountAMin Min amount of tokenA.\r\n     * @param amountBMin Min amount of tokenB.\r\n     * @param getId ID to retrieve LP token amounts\r\n     * @param setIds stores the amount of output tokens\r\n     */\r\n    function withdraw(\r\n        uint256 tokenId,\r\n        uint256 liquidity,\r\n        uint256 amountAMin,\r\n        uint256 amountBMin,\r\n        uint256 getId,\r\n        uint256[] calldata setIds\r\n    )\r\n        external\r\n        payable\r\n        returns (string memory _eventName, bytes memory _eventParam)\r\n    {\r\n        if (tokenId == 0) tokenId = _getLastNftId(address(this));\r\n        uint128 _liquidity = uint128(getUint(getId, liquidity));\r\n\r\n        (uint256 _amtA, uint256 _amtB) = _decreaseLiquidity(\r\n            tokenId,\r\n            _liquidity,\r\n            amountAMin,\r\n            amountBMin\r\n        );\r\n\r\n        setUint(setIds[0], _amtA);\r\n        setUint(setIds[1], _amtB);\r\n\r\n        _eventName = \"LogWithdraw(uint256,uint256,uint256,uint256)\";\r\n        _eventParam = abi.encode(tokenId, _liquidity, _amtA, _amtB);\r\n    }\r\n}\r\n\r\ncontract ConnectV2UniswapV3 is UniswapResolver {\r\n    string public constant name = \"UniswapV3-v1\";\r\n}",
  "sourcePath": "C:\\Users\\mared\\OneDrive\\Desktop\\dapps-ethereum\\contracts\\main.sol",
  "compiler": {
    "name": "solc",
    "version": "0.8.0+commit.c7dfd78e.Emscripten.clang"
  },
  "schemaVersion": "3.4.4",
  "updatedAt": "2022-02-08T09:42:43.405Z",
  "devdoc": {
    "kind": "dev",
    "methods": {
      "withdraw(uint256,uint256,uint256,uint256,uint256,uint256[])": {
        "details": "Decrease Liquidity",
        "params": {
          "amountAMin": "Min amount of tokenA.",
          "amountBMin": "Min amount of tokenB.",
          "getId": "ID to retrieve LP token amounts",
          "liquidity": "LP Token amount.",
          "setIds": "stores the amount of output tokens",
          "tokenId": "NFT LP Token ID."
        }
      }
    },
    "version": 1
  },
  "userdoc": {
    "kind": "user",
    "methods": {
      "withdraw(uint256,uint256,uint256,uint256,uint256,uint256[])": {
        "notice": "Decrease Liquidity of NFT Position"
      }
    },
    "version": 1
  }
}