{
  "contractName": "DepositTest",
  "abi": [
    {
      "inputs": [
        {
          "internalType": "address",
          "name": "",
          "type": "address"
        }
      ],
      "name": "accounts",
      "outputs": [
        {
          "internalType": "uint256",
          "name": "",
          "type": "uint256"
        }
      ],
      "stateMutability": "view",
      "type": "function",
      "constant": true
    },
    {
      "stateMutability": "payable",
      "type": "receive",
      "payable": true
    },
    {
      "inputs": [],
      "name": "deposit",
      "outputs": [],
      "stateMutability": "payable",
      "type": "function",
      "payable": true
    },
    {
      "inputs": [
        {
          "internalType": "address payable",
          "name": "_to",
          "type": "address"
        },
        {
          "internalType": "uint256",
          "name": "_amount",
          "type": "uint256"
        }
      ],
      "name": "withdrawMoney",
      "outputs": [],
      "stateMutability": "nonpayable",
      "type": "function"
    }
  ],
  "bytecode": "0x608060405234801561001057600080fd5b506102f3806100206000396000f3fe6080604052600436106100385760003560e01c80635e5c06e214610044578063d0e30db014610081578063f274c8971461008b5761003f565b3661003f57005b600080fd5b34801561005057600080fd5b5061006b6004803603810190610066919061019b565b6100b4565b604051610078919061020f565b60405180910390f35b6100896100cc565b005b34801561009757600080fd5b506100b260048036038101906100ad91906101c4565b610111565b005b60006020528060005260406000206000915090505481565b346000803373ffffffffffffffffffffffffffffffffffffffff1673ffffffffffffffffffffffffffffffffffffffff16815260200190815260200160002081905550565b8173ffffffffffffffffffffffffffffffffffffffff166108fc829081150290604051600060405180830381858888f19350505050158015610157573d6000803e3d6000fd5b505050565b60008135905061016b81610278565b92915050565b6000813590506101808161028f565b92915050565b600081359050610195816102a6565b92915050565b6000602082840312156101ad57600080fd5b60006101bb8482850161015c565b91505092915050565b600080604083850312156101d757600080fd5b60006101e585828601610171565b92505060206101f685828601610186565b9150509250929050565b6102098161026e565b82525050565b60006020820190506102246000830184610200565b92915050565b60006102358261024e565b9050919050565b60006102478261024e565b9050919050565b600073ffffffffffffffffffffffffffffffffffffffff82169050919050565b6000819050919050565b6102818161022a565b811461028c57600080fd5b50565b6102988161023c565b81146102a357600080fd5b50565b6102af8161026e565b81146102ba57600080fd5b5056fea2646970667358221220adbaab544516123baa05aeeef88eed05b8ad856a4cfa899f1a798422401763f564736f6c63430008010033",
  "immutableReferences": {},
  "source": "// SPDX-License-Identifier: MIT\r\npragma solidity 0.8.1;\r\n\r\ncontract DepositTest{ \r\n\r\n    mapping(address=> uint) public accounts;\r\n\r\n    function deposit() external payable  {\r\n        accounts[msg.sender] = msg.value;\r\n    }\r\n\r\n    function withdrawMoney(address payable _to, uint _amount) public {\r\n        _to.transfer(_amount);\r\n    }\r\n\r\n    receive() external payable {\r\n\r\n    }\r\n}",
  "sourcePath": "C:\\Users\\ritwi\\OneDrive\\Desktop\\daap\\test\\contracts\\DepositTest.sol",
  "compiler": {
    "name": "solc",
    "version": "0.8.1+commit.df193b15.Emscripten.clang"
  },
  "schemaVersion": "3.4.4",
  "updatedAt": "2022-02-05T19:07:52.375Z",
  "networkType": "ethereum",
  "devdoc": {
    "kind": "dev",
    "methods": {},
    "version": 1
  },
  "userdoc": {
    "kind": "user",
    "methods": {},
    "version": 1
  }
}