{
  "contractName": "MyContract",
  "abi": [
    {
      "anonymous": false,
      "inputs": [
        {
          "indexed": false,
          "internalType": "string",
          "name": "",
          "type": "string"
        },
        {
          "indexed": false,
          "internalType": "uint256",
          "name": "",
          "type": "uint256"
        }
      ],
      "name": "MyLog",
      "type": "event"
    },
    {
      "inputs": [
        {
          "internalType": "address",
          "name": "",
          "type": "address"
        }
      ],
      "name": "accounts",
      "outputs": [
        {
          "internalType": "uint256",
          "name": "",
          "type": "uint256"
        }
      ],
      "stateMutability": "view",
      "type": "function"
    },
    {
      "stateMutability": "payable",
      "type": "receive"
    },
    {
      "inputs": [],
      "name": "deposit",
      "outputs": [],
      "stateMutability": "payable",
      "type": "function"
    },
    {
      "inputs": [
        {
          "internalType": "address payable",
          "name": "_cEtherContract",
          "type": "address"
        }
      ],
      "name": "supplyEthToCompound",
      "outputs": [
        {
          "internalType": "bool",
          "name": "",
          "type": "bool"
        }
      ],
      "stateMutability": "payable",
      "type": "function"
    },
    {
      "inputs": [
        {
          "internalType": "uint256",
          "name": "amount",
          "type": "uint256"
        },
        {
          "internalType": "bool",
          "name": "redeemType",
          "type": "bool"
        },
        {
          "internalType": "address",
          "name": "_cEtherContract",
          "type": "address"
        }
      ],
      "name": "redeemCEth",
      "outputs": [
        {
          "internalType": "bool",
          "name": "",
          "type": "bool"
        }
      ],
      "stateMutability": "nonpayable",
      "type": "function"
    },
    {
      "inputs": [
        {
          "internalType": "address",
          "name": "_erc20Contract",
          "type": "address"
        },
        {
          "internalType": "address",
          "name": "_cErc20Contract",
          "type": "address"
        },
        {
          "internalType": "uint256",
          "name": "_numTokensToSupply",
          "type": "uint256"
        }
      ],
      "name": "supplyErc20ToCompound",
      "outputs": [
        {
          "internalType": "uint256",
          "name": "",
          "type": "uint256"
        }
      ],
      "stateMutability": "nonpayable",
      "type": "function"
    },
    {
      "inputs": [
        {
          "internalType": "uint256",
          "name": "amount",
          "type": "uint256"
        },
        {
          "internalType": "bool",
          "name": "redeemType",
          "type": "bool"
        },
        {
          "internalType": "address",
          "name": "_cErc20Contract",
          "type": "address"
        }
      ],
      "name": "redeemCErc20Tokens",
      "outputs": [
        {
          "internalType": "bool",
          "name": "",
          "type": "bool"
        }
      ],
      "stateMutability": "nonpayable",
      "type": "function"
    }
  ],
  "bytecode": "0x608060405234801561001057600080fd5b50610efc806100206000396000f3fe6080604052600436106100595760003560e01c80633b7ba25f146100655780635e5c06e2146100a2578063a82ffd88146100df578063c6fb50141461010f578063d0ace48e1461014c578063d0e30db01461018957610060565b3661006057005b600080fd5b34801561007157600080fd5b5061008c60048036038101906100879190610981565b610193565b60405161009991906109e3565b60405180910390f35b3480156100ae57600080fd5b506100c960048036038101906100c491906109fe565b610404565b6040516100d691906109e3565b60405180910390f35b6100f960048036038101906100f49190610a69565b61041c565b6040516101069190610ab1565b60405180910390f35b34801561011b57600080fd5b5061013660048036038101906101319190610af8565b6105ed565b6040516101439190610ab1565b60405180910390f35b34801561015857600080fd5b50610173600480360381019061016e9190610af8565b610748565b6040516101809190610ab1565b60405180910390f35b6101916108a3565b005b600080849050600084905060008173ffffffffffffffffffffffffffffffffffffffff1663bd6d894d6040518163ffffffff1660e01b81526004016020604051808303816000875af11580156101ed573d6000803e3d6000fd5b505050506040513d601f19601f820116820180604052508101906102119190610b60565b90507f8d1cced004452bd270777a8c670f9f7e7c4fdde56f2db331fe289d39dc2624ad816040516102429190610bea565b60405180910390a160008273ffffffffffffffffffffffffffffffffffffffff1663ae9d70b06040518163ffffffff1660e01b81526004016020604051808303816000875af1158015610299573d6000803e3d6000fd5b505050506040513d601f19601f820116820180604052508101906102bd9190610b60565b90507f8d1cced004452bd270777a8c670f9f7e7c4fdde56f2db331fe289d39dc2624ad816040516102ee9190610c64565b60405180910390a18373ffffffffffffffffffffffffffffffffffffffff1663095ea7b388886040518363ffffffff1660e01b8152600401610331929190610ca1565b6020604051808303816000875af1158015610350573d6000803e3d6000fd5b505050506040513d601f19601f820116820180604052508101906103749190610cdf565b5060008373ffffffffffffffffffffffffffffffffffffffff1663a0712d68886040518263ffffffff1660e01b81526004016103b091906109e3565b6020604051808303816000875af11580156103cf573d6000803e3d6000fd5b505050506040513d601f19601f820116820180604052508101906103f39190610b60565b905080955050505050509392505050565b60006020528060005260406000206000915090505481565b60008082905060008173ffffffffffffffffffffffffffffffffffffffff1663bd6d894d6040518163ffffffff1660e01b81526004016020604051808303816000875af1158015610471573d6000803e3d6000fd5b505050506040513d601f19601f820116820180604052508101906104959190610b60565b90507f8d1cced004452bd270777a8c670f9f7e7c4fdde56f2db331fe289d39dc2624ad816040516104c69190610d7e565b60405180910390a160008273ffffffffffffffffffffffffffffffffffffffff1663ae9d70b06040518163ffffffff1660e01b81526004016020604051808303816000875af115801561051d573d6000803e3d6000fd5b505050506040513d601f19601f820116820180604052508101906105419190610b60565b90507f8d1cced004452bd270777a8c670f9f7e7c4fdde56f2db331fe289d39dc2624ad816040516105729190610df8565b60405180910390a18273ffffffffffffffffffffffffffffffffffffffff16631249c58b346203d090906040518363ffffffff1660e01b81526004016000604051808303818589803b1580156105c757600080fd5b5088f11580156105db573d6000803e3d6000fd5b50505050505060019350505050919050565b6000808290506000600115158515151415610685578173ffffffffffffffffffffffffffffffffffffffff1663db006a75876040518263ffffffff1660e01b815260040161063b91906109e3565b6020604051808303816000875af115801561065a573d6000803e3d6000fd5b505050506040513d601f19601f8201168201806040525081019061067e9190610b60565b9050610704565b8173ffffffffffffffffffffffffffffffffffffffff1663852a12e3876040518263ffffffff1660e01b81526004016106be91906109e3565b6020604051808303816000875af11580156106dd573d6000803e3d6000fd5b505050506040513d601f19601f820116820180604052508101906107019190610b60565b90505b7f8d1cced004452bd270777a8c670f9f7e7c4fdde56f2db331fe289d39dc2624ad816040516107339190610e98565b60405180910390a16001925050509392505050565b60008082905060006001151585151514156107e0578173ffffffffffffffffffffffffffffffffffffffff1663db006a75876040518263ffffffff1660e01b815260040161079691906109e3565b6020604051808303816000875af11580156107b5573d6000803e3d6000fd5b505050506040513d601f19601f820116820180604052508101906107d99190610b60565b905061085f565b8173ffffffffffffffffffffffffffffffffffffffff1663852a12e3876040518263ffffffff1660e01b815260040161081991906109e3565b6020604051808303816000875af1158015610838573d6000803e3d6000fd5b505050506040513d601f19601f8201168201806040525081019061085c9190610b60565b90505b7f8d1cced004452bd270777a8c670f9f7e7c4fdde56f2db331fe289d39dc2624ad8160405161088e9190610e98565b60405180910390a16001925050509392505050565b346000803373ffffffffffffffffffffffffffffffffffffffff1673ffffffffffffffffffffffffffffffffffffffff16815260200190815260200160002081905550565b600080fd5b600073ffffffffffffffffffffffffffffffffffffffff82169050919050565b6000610918826108ed565b9050919050565b6109288161090d565b811461093357600080fd5b50565b6000813590506109458161091f565b92915050565b6000819050919050565b61095e8161094b565b811461096957600080fd5b50565b60008135905061097b81610955565b92915050565b60008060006060848603121561099a576109996108e8565b5b60006109a886828701610936565b93505060206109b986828701610936565b92505060406109ca8682870161096c565b9150509250925092565b6109dd8161094b565b82525050565b60006020820190506109f860008301846109d4565b92915050565b600060208284031215610a1457610a136108e8565b5b6000610a2284828501610936565b91505092915050565b6000610a36826108ed565b9050919050565b610a4681610a2b565b8114610a5157600080fd5b50565b600081359050610a6381610a3d565b92915050565b600060208284031215610a7f57610a7e6108e8565b5b6000610a8d84828501610a54565b91505092915050565b60008115159050919050565b610aab81610a96565b82525050565b6000602082019050610ac66000830184610aa2565b92915050565b610ad581610a96565b8114610ae057600080fd5b50565b600081359050610af281610acc565b92915050565b600080600060608486031215610b1157610b106108e8565b5b6000610b1f8682870161096c565b9350506020610b3086828701610ae3565b9250506040610b4186828701610936565b9150509250925092565b600081519050610b5a81610955565b92915050565b600060208284031215610b7657610b756108e8565b5b6000610b8484828501610b4b565b91505092915050565b600082825260208201905092915050565b7f45786368616e6765205261746520287363616c6564207570293a200000000000600082015250565b6000610bd4601b83610b8d565b9150610bdf82610b9e565b602082019050919050565b60006040820190508181036000830152610c0381610bc7565b9050610c1260208301846109d4565b92915050565b7f537570706c7920526174653a20287363616c6564207570290000000000000000600082015250565b6000610c4e601883610b8d565b9150610c5982610c18565b602082019050919050565b60006040820190508181036000830152610c7d81610c41565b9050610c8c60208301846109d4565b92915050565b610c9b8161090d565b82525050565b6000604082019050610cb66000830185610c92565b610cc360208301846109d4565b9392505050565b600081519050610cd981610acc565b92915050565b600060208284031215610cf557610cf46108e8565b5b6000610d0384828501610cca565b91505092915050565b7f45786368616e6765205261746520287363616c6564207570206279203165313860008201527f293a200000000000000000000000000000000000000000000000000000000000602082015250565b6000610d68602383610b8d565b9150610d7382610d0c565b604082019050919050565b60006040820190508181036000830152610d9781610d5b565b9050610da660208301846109d4565b92915050565b7f537570706c7920526174653a20287363616c6564207570206279203165313829600082015250565b6000610de2602083610b8d565b9150610ded82610dac565b602082019050919050565b60006040820190508181036000830152610e1181610dd5565b9050610e2060208301846109d4565b92915050565b7f49662074686973206973206e6f7420302c2074686572652077617320616e206560008201527f72726f7200000000000000000000000000000000000000000000000000000000602082015250565b6000610e82602483610b8d565b9150610e8d82610e26565b604082019050919050565b60006040820190508181036000830152610eb181610e75565b9050610ec060208301846109d4565b9291505056fea2646970667358221220be9ebcb0638a0971c18bb5a621b2efe48df29953822d4a91f4c11552a2f4932064736f6c634300080b0033",
  "immutableReferences": {},
  "source": "// SPDX-License-Identifier: MIT\r\npragma solidity ^0.8.1;\r\n\r\n\r\ninterface Erc20 {\r\n    function approve(address, uint256) external returns (bool);\r\n\r\n    function transfer(address, uint256) external returns (bool);\r\n}\r\n\r\n\r\ninterface CErc20 {\r\n    function mint(uint256) external returns (uint256);\r\n\r\n    function exchangeRateCurrent() external returns (uint256);\r\n\r\n    function supplyRatePerBlock() external returns (uint256);\r\n\r\n    function redeem(uint) external returns (uint);\r\n\r\n    function redeemUnderlying(uint) external returns (uint);\r\n}\r\n\r\ninterface CEth {\r\n    function mint() external payable;\r\n\r\n    function exchangeRateCurrent() external returns (uint256);\r\n\r\n    function supplyRatePerBlock() external returns (uint256);\r\n\r\n    function redeem(uint) external returns (uint);\r\n\r\n    function redeemUnderlying(uint) external returns (uint);\r\n}\r\n\r\ncontract MyContract {\r\n    event MyLog(string, uint256);\r\n\r\n    \r\n    mapping(address=> uint) public accounts;\r\n\r\n    function deposit() external payable  {\r\n        accounts[msg.sender] = msg.value;\r\n    }\r\n\r\n    receive() external payable {\r\n\r\n    }\r\n\r\n    function supplyEthToCompound(address payable _cEtherContract)\r\n        public\r\n        payable\r\n        returns (bool)\r\n    {\r\n        // Create a reference to the corresponding cToken contract\r\n        CEth cToken = CEth(_cEtherContract);\r\n\r\n        // Amount of current exchange rate from cToken to underlying\r\n        uint256 exchangeRateMantissa = cToken.exchangeRateCurrent();\r\n        emit MyLog(\"Exchange Rate (scaled up by 1e18): \", exchangeRateMantissa);\r\n\r\n        // Amount added to you supply balance this block\r\n        uint256 supplyRateMantissa = cToken.supplyRatePerBlock();\r\n        emit MyLog(\"Supply Rate: (scaled up by 1e18)\", supplyRateMantissa);\r\n\r\n        cToken.mint{ value: msg.value, gas: 250000 }();\r\n        return true;\r\n    }\r\n\r\n     function redeemCEth(\r\n        uint256 amount,\r\n        bool redeemType,\r\n        address _cEtherContract\r\n    ) public returns (bool) {\r\n        // Create a reference to the corresponding cToken contract\r\n        CEth cToken = CEth(_cEtherContract);\r\n\r\n        // `amount` is scaled up by 1e18 to avoid decimals\r\n\r\n        uint256 redeemResult;\r\n\r\n        if (redeemType == true) {\r\n            // Retrieve your asset based on a cToken amount\r\n            redeemResult = cToken.redeem(amount);\r\n        } else {\r\n            // Retrieve your asset based on an amount of the asset\r\n            redeemResult = cToken.redeemUnderlying(amount);\r\n        }\r\n\r\n        // Error codes are listed here:\r\n        // https://compound.finance/docs/ctokens#error-codes\r\n        emit MyLog(\"If this is not 0, there was an error\", redeemResult);\r\n\r\n        return true;\r\n    }\r\n\r\n    function supplyErc20ToCompound(\r\n        address _erc20Contract,\r\n        address _cErc20Contract,\r\n        uint256 _numTokensToSupply\r\n    ) public returns (uint) {\r\n        // Create a reference to the underlying asset contract, like DAI.\r\n        Erc20 underlying = Erc20(_erc20Contract);\r\n\r\n        // Create a reference to the corresponding cToken contract, like cDAI\r\n        CErc20 cToken = CErc20(_cErc20Contract);\r\n\r\n        // Amount of current exchange rate from cToken to underlying\r\n        uint256 exchangeRateMantissa = cToken.exchangeRateCurrent();\r\n        emit MyLog(\"Exchange Rate (scaled up): \", exchangeRateMantissa);\r\n\r\n        // Amount added to you supply balance this block\r\n        uint256 supplyRateMantissa = cToken.supplyRatePerBlock();\r\n        emit MyLog(\"Supply Rate: (scaled up)\", supplyRateMantissa);\r\n\r\n        // Approve transfer on the ERC20 contract\r\n        underlying.approve(_cErc20Contract, _numTokensToSupply);\r\n\r\n        // Mint cTokens\r\n        uint mintResult = cToken.mint(_numTokensToSupply);\r\n        return mintResult;\r\n    }\r\n\r\n    function redeemCErc20Tokens(\r\n        uint256 amount,\r\n        bool redeemType,\r\n        address _cErc20Contract\r\n    ) public returns (bool) {\r\n        // Create a reference to the corresponding cToken contract, like cDAI\r\n        CErc20 cToken = CErc20(_cErc20Contract);\r\n\r\n        // `amount` is scaled up, see decimal table here:\r\n        // https://compound.finance/docs#protocol-math\r\n\r\n        uint256 redeemResult;\r\n\r\n        if (redeemType == true) {\r\n            // Retrieve your asset based on a cToken amount\r\n            redeemResult = cToken.redeem(amount);\r\n        } else {\r\n            // Retrieve your asset based on an amount of the asset\r\n            redeemResult = cToken.redeemUnderlying(amount);\r\n        }\r\n\r\n        // Error codes are listed here:\r\n        // https://compound.finance/docs/ctokens#error-codes\r\n        emit MyLog(\"If this is not 0, there was an error\", redeemResult);\r\n\r\n        return true;\r\n    }\r\n}",
  "sourcePath": "C:\\Users\\ritwi\\OneDrive\\Desktop\\daap\\test\\contracts\\compound\\mail.sol",
  "compiler": {
    "name": "solc",
    "version": "0.8.11+commit.d7f03943.Emscripten.clang"
  },
  "schemaVersion": "3.4.4",
  "updatedAt": "2022-02-08T18:05:20.082Z",
  "devdoc": {
    "kind": "dev",
    "methods": {},
    "version": 1
  },
  "userdoc": {
    "kind": "user",
    "methods": {},
    "version": 1
  }
}