{
  "contractName": "MyContract",
  "abi": [
    {
      "anonymous": false,
      "inputs": [
        {
          "indexed": false,
          "internalType": "string",
          "name": "",
          "type": "string"
        },
        {
          "indexed": false,
          "internalType": "uint256",
          "name": "",
          "type": "uint256"
        }
      ],
      "name": "MyLog",
      "type": "event"
    },
    {
      "inputs": [
        {
          "internalType": "address",
          "name": "",
          "type": "address"
        }
      ],
      "name": "accounts",
      "outputs": [
        {
          "internalType": "uint256",
          "name": "",
          "type": "uint256"
        }
      ],
      "stateMutability": "view",
      "type": "function",
      "constant": true
    },
    {
      "stateMutability": "payable",
      "type": "receive",
      "payable": true
    },
    {
      "inputs": [],
      "name": "deposit",
      "outputs": [],
      "stateMutability": "payable",
      "type": "function",
      "payable": true
    },
    {
      "inputs": [],
      "name": "getBalanceInContract",
      "outputs": [
        {
          "internalType": "uint256",
          "name": "",
          "type": "uint256"
        }
      ],
      "stateMutability": "view",
      "type": "function",
      "constant": true
    },
    {
      "inputs": [
        {
          "internalType": "address",
          "name": "owner",
          "type": "address"
        },
        {
          "internalType": "address",
          "name": "_cEtherContract",
          "type": "address"
        }
      ],
      "name": "balanceOf",
      "outputs": [
        {
          "internalType": "uint256",
          "name": "",
          "type": "uint256"
        }
      ],
      "stateMutability": "payable",
      "type": "function",
      "payable": true
    },
    {
      "inputs": [
        {
          "internalType": "address payable",
          "name": "_cEtherContract",
          "type": "address"
        }
      ],
      "name": "supplyEthToCompound",
      "outputs": [
        {
          "internalType": "bool",
          "name": "",
          "type": "bool"
        }
      ],
      "stateMutability": "payable",
      "type": "function",
      "payable": true
    },
    {
      "inputs": [
        {
          "internalType": "uint256",
          "name": "amount",
          "type": "uint256"
        },
        {
          "internalType": "bool",
          "name": "redeemType",
          "type": "bool"
        },
        {
          "internalType": "address",
          "name": "_cEtherContract",
          "type": "address"
        }
      ],
      "name": "redeemCEth",
      "outputs": [
        {
          "internalType": "bool",
          "name": "",
          "type": "bool"
        }
      ],
      "stateMutability": "nonpayable",
      "type": "function"
    },
    {
      "inputs": [
        {
          "internalType": "address",
          "name": "_erc20Contract",
          "type": "address"
        },
        {
          "internalType": "address",
          "name": "_cErc20Contract",
          "type": "address"
        },
        {
          "internalType": "uint256",
          "name": "_numTokensToSupply",
          "type": "uint256"
        }
      ],
      "name": "supplyErc20ToCompound",
      "outputs": [
        {
          "internalType": "uint256",
          "name": "",
          "type": "uint256"
        }
      ],
      "stateMutability": "nonpayable",
      "type": "function"
    },
    {
      "inputs": [
        {
          "internalType": "uint256",
          "name": "amount",
          "type": "uint256"
        },
        {
          "internalType": "bool",
          "name": "redeemType",
          "type": "bool"
        },
        {
          "internalType": "address",
          "name": "_cErc20Contract",
          "type": "address"
        }
      ],
      "name": "redeemCErc20Tokens",
      "outputs": [
        {
          "internalType": "bool",
          "name": "",
          "type": "bool"
        }
      ],
      "stateMutability": "nonpayable",
      "type": "function"
    }
  ],
  "bytecode": "0x608060405234801561001057600080fd5b50611120806100206000396000f3fe60806040526004361061007f5760003560e01c8063c6fb50141161004e578063c6fb501414610160578063d0ace48e1461019d578063d0e30db0146101da578063f7888aec146101e457610086565b806328270d4d1461008b5780633b7ba25f146100b65780635e5c06e2146100f3578063a82ffd881461013057610086565b3661008657005b600080fd5b34801561009757600080fd5b506100a0610214565b6040516100ad9190610a50565b60405180910390f35b3480156100c257600080fd5b506100dd60048036038101906100d89190610afa565b61021c565b6040516100ea9190610a50565b60405180910390f35b3480156100ff57600080fd5b5061011a60048036038101906101159190610b4d565b61048d565b6040516101279190610a50565b60405180910390f35b61014a60048036038101906101459190610bb8565b6104a5565b6040516101579190610c00565b60405180910390f35b34801561016c57600080fd5b5061018760048036038101906101829190610c47565b610676565b6040516101949190610c00565b60405180910390f35b3480156101a957600080fd5b506101c460048036038101906101bf9190610c47565b6107d1565b6040516101d19190610c00565b60405180910390f35b6101e261092c565b005b6101fe60048036038101906101f99190610c9a565b610971565b60405161020b9190610a50565b60405180910390f35b600047905090565b600080849050600084905060008173ffffffffffffffffffffffffffffffffffffffff1663bd6d894d6040518163ffffffff1660e01b81526004016020604051808303816000875af1158015610276573d6000803e3d6000fd5b505050506040513d601f19601f8201168201806040525081019061029a9190610cef565b90507f8d1cced004452bd270777a8c670f9f7e7c4fdde56f2db331fe289d39dc2624ad816040516102cb9190610d79565b60405180910390a160008273ffffffffffffffffffffffffffffffffffffffff1663ae9d70b06040518163ffffffff1660e01b81526004016020604051808303816000875af1158015610322573d6000803e3d6000fd5b505050506040513d601f19601f820116820180604052508101906103469190610cef565b90507f8d1cced004452bd270777a8c670f9f7e7c4fdde56f2db331fe289d39dc2624ad816040516103779190610df3565b60405180910390a18373ffffffffffffffffffffffffffffffffffffffff1663095ea7b388886040518363ffffffff1660e01b81526004016103ba929190610e30565b6020604051808303816000875af11580156103d9573d6000803e3d6000fd5b505050506040513d601f19601f820116820180604052508101906103fd9190610e6e565b5060008373ffffffffffffffffffffffffffffffffffffffff1663a0712d68886040518263ffffffff1660e01b81526004016104399190610a50565b6020604051808303816000875af1158015610458573d6000803e3d6000fd5b505050506040513d601f19601f8201168201806040525081019061047c9190610cef565b905080955050505050509392505050565b60006020528060005260406000206000915090505481565b60008082905060008173ffffffffffffffffffffffffffffffffffffffff1663bd6d894d6040518163ffffffff1660e01b81526004016020604051808303816000875af11580156104fa573d6000803e3d6000fd5b505050506040513d601f19601f8201168201806040525081019061051e9190610cef565b90507f8d1cced004452bd270777a8c670f9f7e7c4fdde56f2db331fe289d39dc2624ad8160405161054f9190610f0d565b60405180910390a160008273ffffffffffffffffffffffffffffffffffffffff1663ae9d70b06040518163ffffffff1660e01b81526004016020604051808303816000875af11580156105a6573d6000803e3d6000fd5b505050506040513d601f19601f820116820180604052508101906105ca9190610cef565b90507f8d1cced004452bd270777a8c670f9f7e7c4fdde56f2db331fe289d39dc2624ad816040516105fb9190610f87565b60405180910390a18273ffffffffffffffffffffffffffffffffffffffff16631249c58b346203d090906040518363ffffffff1660e01b81526004016000604051808303818589803b15801561065057600080fd5b5088f1158015610664573d6000803e3d6000fd5b50505050505060019350505050919050565b600080829050600060011515851515141561070e578173ffffffffffffffffffffffffffffffffffffffff1663db006a75876040518263ffffffff1660e01b81526004016106c49190610a50565b6020604051808303816000875af11580156106e3573d6000803e3d6000fd5b505050506040513d601f19601f820116820180604052508101906107079190610cef565b905061078d565b8173ffffffffffffffffffffffffffffffffffffffff1663852a12e3876040518263ffffffff1660e01b81526004016107479190610a50565b6020604051808303816000875af1158015610766573d6000803e3d6000fd5b505050506040513d601f19601f8201168201806040525081019061078a9190610cef565b90505b7f8d1cced004452bd270777a8c670f9f7e7c4fdde56f2db331fe289d39dc2624ad816040516107bc9190611027565b60405180910390a16001925050509392505050565b6000808290506000600115158515151415610869578173ffffffffffffffffffffffffffffffffffffffff1663db006a75876040518263ffffffff1660e01b815260040161081f9190610a50565b6020604051808303816000875af115801561083e573d6000803e3d6000fd5b505050506040513d601f19601f820116820180604052508101906108629190610cef565b90506108e8565b8173ffffffffffffffffffffffffffffffffffffffff1663852a12e3876040518263ffffffff1660e01b81526004016108a29190610a50565b6020604051808303816000875af11580156108c1573d6000803e3d6000fd5b505050506040513d601f19601f820116820180604052508101906108e59190610cef565b90505b7f8d1cced004452bd270777a8c670f9f7e7c4fdde56f2db331fe289d39dc2624ad816040516109179190611027565b60405180910390a16001925050509392505050565b346000803373ffffffffffffffffffffffffffffffffffffffff1673ffffffffffffffffffffffffffffffffffffffff16815260200190815260200160002081905550565b60008082905060008173ffffffffffffffffffffffffffffffffffffffff166370a08231866040518263ffffffff1660e01b81526004016109b29190611055565b602060405180830381865afa1580156109cf573d6000803e3d6000fd5b505050506040513d601f19601f820116820180604052508101906109f39190610cef565b90507f8d1cced004452bd270777a8c670f9f7e7c4fdde56f2db331fe289d39dc2624ad81604051610a2491906110bc565b60405180910390a1809250505092915050565b6000819050919050565b610a4a81610a37565b82525050565b6000602082019050610a656000830184610a41565b92915050565b600080fd5b600073ffffffffffffffffffffffffffffffffffffffff82169050919050565b6000610a9b82610a70565b9050919050565b610aab81610a90565b8114610ab657600080fd5b50565b600081359050610ac881610aa2565b92915050565b610ad781610a37565b8114610ae257600080fd5b50565b600081359050610af481610ace565b92915050565b600080600060608486031215610b1357610b12610a6b565b5b6000610b2186828701610ab9565b9350506020610b3286828701610ab9565b9250506040610b4386828701610ae5565b9150509250925092565b600060208284031215610b6357610b62610a6b565b5b6000610b7184828501610ab9565b91505092915050565b6000610b8582610a70565b9050919050565b610b9581610b7a565b8114610ba057600080fd5b50565b600081359050610bb281610b8c565b92915050565b600060208284031215610bce57610bcd610a6b565b5b6000610bdc84828501610ba3565b91505092915050565b60008115159050919050565b610bfa81610be5565b82525050565b6000602082019050610c156000830184610bf1565b92915050565b610c2481610be5565b8114610c2f57600080fd5b50565b600081359050610c4181610c1b565b92915050565b600080600060608486031215610c6057610c5f610a6b565b5b6000610c6e86828701610ae5565b9350506020610c7f86828701610c32565b9250506040610c9086828701610ab9565b9150509250925092565b60008060408385031215610cb157610cb0610a6b565b5b6000610cbf85828601610ab9565b9250506020610cd085828601610ab9565b9150509250929050565b600081519050610ce981610ace565b92915050565b600060208284031215610d0557610d04610a6b565b5b6000610d1384828501610cda565b91505092915050565b600082825260208201905092915050565b7f45786368616e6765205261746520287363616c6564207570293a200000000000600082015250565b6000610d63601b83610d1c565b9150610d6e82610d2d565b602082019050919050565b60006040820190508181036000830152610d9281610d56565b9050610da16020830184610a41565b92915050565b7f537570706c7920526174653a20287363616c6564207570290000000000000000600082015250565b6000610ddd601883610d1c565b9150610de882610da7565b602082019050919050565b60006040820190508181036000830152610e0c81610dd0565b9050610e1b6020830184610a41565b92915050565b610e2a81610a90565b82525050565b6000604082019050610e456000830185610e21565b610e526020830184610a41565b9392505050565b600081519050610e6881610c1b565b92915050565b600060208284031215610e8457610e83610a6b565b5b6000610e9284828501610e59565b91505092915050565b7f45786368616e6765205261746520287363616c6564207570206279203165313860008201527f293a200000000000000000000000000000000000000000000000000000000000602082015250565b6000610ef7602383610d1c565b9150610f0282610e9b565b604082019050919050565b60006040820190508181036000830152610f2681610eea565b9050610f356020830184610a41565b92915050565b7f537570706c7920526174653a20287363616c6564207570206279203165313829600082015250565b6000610f71602083610d1c565b9150610f7c82610f3b565b602082019050919050565b60006040820190508181036000830152610fa081610f64565b9050610faf6020830184610a41565b92915050565b7f49662074686973206973206e6f7420302c2074686572652077617320616e206560008201527f72726f7200000000000000000000000000000000000000000000000000000000602082015250565b6000611011602483610d1c565b915061101c82610fb5565b604082019050919050565b6000604082019050818103600083015261104081611004565b905061104f6020830184610a41565b92915050565b600060208201905061106a6000830184610e21565b92915050565b7f42616c616e636520287363616c65642075702062792031653138293a20000000600082015250565b60006110a6601d83610d1c565b91506110b182611070565b602082019050919050565b600060408201905081810360008301526110d581611099565b90506110e46020830184610a41565b9291505056fea2646970667358221220811d1353212d1d6f5099c3997ab54882477ed46b0c5c47a1199e72740e1afd8764736f6c634300080c0033",
  "immutableReferences": {},
  "source": "// SPDX-License-Identifier: MIT\r\npragma solidity ^0.8.1;\r\nimport \"./../interfaces/compound.sol\";\r\n\r\n\r\ninterface Erc20 {\r\n    function approve(address, uint256) external returns (bool);\r\n\r\n    function transfer(address, uint256) external returns (bool);\r\n}\r\n\r\ncontract MyContract {\r\n    event MyLog(string, uint256);\r\n\r\n    mapping(address=> uint) public accounts;\r\n\r\n    function deposit() external payable  {\r\n        accounts[msg.sender] = msg.value;\r\n    }\r\n\r\n    receive() external payable {\r\n\r\n    }\r\n\r\n    function getBalanceInContract() external view returns(uint) {\r\n        return address(this).balance;\r\n    }\r\n\r\n    function balanceOf(address owner,address _cEtherContract) external payable returns (uint256){\r\n        CEth cToken = CEth(_cEtherContract);\r\n\r\n        uint256 balance = cToken.balanceOf(owner);\r\n\r\n        emit MyLog(\"Balance (scaled up by 1e18): \", balance);\r\n\r\n        return balance;\r\n    }\r\n\r\n    function supplyEthToCompound(address payable _cEtherContract)\r\n        public\r\n        payable\r\n        returns (bool)\r\n    {\r\n        // Create a reference to the corresponding cToken contract\r\n        CEth cToken = CEth(_cEtherContract);\r\n\r\n        // Amount of current exchange rate from cToken to underlying\r\n        uint256 exchangeRateMantissa = cToken.exchangeRateCurrent();\r\n        emit MyLog(\"Exchange Rate (scaled up by 1e18): \", exchangeRateMantissa);\r\n\r\n        // Amount added to you supply balance this block\r\n        uint256 supplyRateMantissa = cToken.supplyRatePerBlock();\r\n        emit MyLog(\"Supply Rate: (scaled up by 1e18)\", supplyRateMantissa);\r\n\r\n        cToken.mint{ value: msg.value, gas: 250000 }();\r\n        return true;\r\n    }\r\n\r\n     function redeemCEth(\r\n        uint256 amount,\r\n        bool redeemType,\r\n        address _cEtherContract\r\n    ) public returns (bool) {\r\n        // Create a reference to the corresponding cToken contract\r\n        CEth cToken = CEth(_cEtherContract);\r\n\r\n        // `amount` is scaled up by 1e18 to avoid decimals\r\n\r\n        uint256 redeemResult;\r\n\r\n        if (redeemType == true) {\r\n            // Retrieve your asset based on a cToken amount\r\n            redeemResult = cToken.redeem(amount);\r\n        } else {\r\n            // Retrieve your asset based on an amount of the asset\r\n            redeemResult = cToken.redeemUnderlying(amount);\r\n        }\r\n\r\n        // Error codes are listed here:\r\n        // https://compound.finance/docs/ctokens#error-codes\r\n        emit MyLog(\"If this is not 0, there was an error\", redeemResult);\r\n\r\n        return true;\r\n    }\r\n\r\n    function supplyErc20ToCompound(\r\n        address _erc20Contract,\r\n        address _cErc20Contract,\r\n        uint256 _numTokensToSupply\r\n    ) public returns (uint) {\r\n        // Create a reference to the underlying asset contract, like DAI.\r\n        Erc20 underlying = Erc20(_erc20Contract);\r\n\r\n        // Create a reference to the corresponding cToken contract, like cDAI\r\n        CErc20 cToken = CErc20(_cErc20Contract);\r\n\r\n        // Amount of current exchange rate from cToken to underlying\r\n        uint256 exchangeRateMantissa = cToken.exchangeRateCurrent();\r\n        emit MyLog(\"Exchange Rate (scaled up): \", exchangeRateMantissa);\r\n\r\n        // Amount added to you supply balance this block\r\n        uint256 supplyRateMantissa = cToken.supplyRatePerBlock();\r\n        emit MyLog(\"Supply Rate: (scaled up)\", supplyRateMantissa);\r\n\r\n        // Approve transfer on the ERC20 contract\r\n        underlying.approve(_cErc20Contract, _numTokensToSupply);\r\n\r\n        // Mint cTokens\r\n        uint mintResult = cToken.mint(_numTokensToSupply);\r\n        return mintResult;\r\n    }\r\n\r\n    function redeemCErc20Tokens(\r\n        uint256 amount,\r\n        bool redeemType,\r\n        address _cErc20Contract\r\n    ) public returns (bool) {\r\n        // Create a reference to the corresponding cToken contract, like cDAI\r\n        CErc20 cToken = CErc20(_cErc20Contract);\r\n\r\n        // `amount` is scaled up, see decimal table here:\r\n        // https://compound.finance/docs#protocol-math\r\n\r\n        uint256 redeemResult;\r\n\r\n        if (redeemType == true) {\r\n            // Retrieve your asset based on a cToken amount\r\n            redeemResult = cToken.redeem(amount);\r\n        } else {\r\n            // Retrieve your asset based on an amount of the asset\r\n            redeemResult = cToken.redeemUnderlying(amount);\r\n        }\r\n\r\n        // Error codes are listed here:\r\n        // https://compound.finance/docs/ctokens#error-codes\r\n        emit MyLog(\"If this is not 0, there was an error\", redeemResult);\r\n\r\n        return true;\r\n    }\r\n}",
  "sourcePath": "C:\\Users\\ritwi\\OneDrive\\Desktop\\dapps-ethereum\\contracts\\compound\\mail.sol",
  "compiler": {
    "name": "solc",
    "version": "0.8.12+commit.f00d7308.Emscripten.clang"
  },
  "schemaVersion": "3.4.4",
  "updatedAt": "2022-02-16T19:42:17.707Z",
  "networkType": "ethereum",
  "devdoc": {
    "kind": "dev",
    "methods": {},
    "version": 1
  },
  "userdoc": {
    "kind": "user",
    "methods": {},
    "version": 1
  }
}