{
  "contractName": "TestUniswapLiquidity",
  "abi": [
    {
      "anonymous": false,
      "inputs": [
        {
          "indexed": false,
          "internalType": "string",
          "name": "message",
          "type": "string"
        },
        {
          "indexed": false,
          "internalType": "uint256",
          "name": "val",
          "type": "uint256"
        }
      ],
      "name": "Log",
      "type": "event"
    },
    {
      "inputs": [
        {
          "internalType": "address",
          "name": "_tokenA",
          "type": "address"
        },
        {
          "internalType": "address",
          "name": "_tokenB",
          "type": "address"
        },
        {
          "internalType": "uint256",
          "name": "_amountA",
          "type": "uint256"
        },
        {
          "internalType": "uint256",
          "name": "_amountB",
          "type": "uint256"
        }
      ],
      "name": "addLiquidity",
      "outputs": [],
      "stateMutability": "nonpayable",
      "type": "function"
    },
    {
      "inputs": [
        {
          "internalType": "address",
          "name": "_tokenA",
          "type": "address"
        },
        {
          "internalType": "address",
          "name": "_tokenB",
          "type": "address"
        }
      ],
      "name": "removeLiquidity",
      "outputs": [],
      "stateMutability": "nonpayable",
      "type": "function"
    }
  ],
  "bytecode": "0x608060405234801561001057600080fd5b50610d34806100206000396000f3fe608060405234801561001057600080fd5b50600436106100365760003560e01c80639cf38f7c1461003b578063cf6c62ea14610057575b600080fd5b610055600480360381019061005091906107ca565b610073565b005b610071600480360381019061006c9190610806565b61036d565b005b6000735c69bee701ef814a2b6a3edd4b1652cb9cc5aa6f73ffffffffffffffffffffffffffffffffffffffff1663e6a4390584846040518363ffffffff1660e01b81526004016100c4929190610a4e565b60206040518083038186803b1580156100dc57600080fd5b505afa1580156100f0573d6000803e3d6000fd5b505050506040513d601f19601f8201168201806040525081019061011491906107a1565b905060008173ffffffffffffffffffffffffffffffffffffffff166370a08231306040518263ffffffff1660e01b81526004016101519190610a33565b60206040518083038186803b15801561016957600080fd5b505afa15801561017d573d6000803e3d6000fd5b505050506040513d601f19601f820116820180604052508101906101a19190610892565b90508173ffffffffffffffffffffffffffffffffffffffff1663095ea7b3737a250d5630b4cf539739df2c5dacb4c659f2488d836040518363ffffffff1660e01b81526004016101f2929190610b9b565b602060405180830381600087803b15801561020c57600080fd5b505af1158015610220573d6000803e3d6000fd5b505050506040513d601f19601f820116820180604052508101906102449190610869565b50600080737a250d5630b4cf539739df2c5dacb4c659f2488d73ffffffffffffffffffffffffffffffffffffffff1663baa2abde87878660018030426040518863ffffffff1660e01b81526004016102a29796959493929190610aae565b6040805180830381600087803b1580156102bb57600080fd5b505af11580156102cf573d6000803e3d6000fd5b505050506040513d601f19601f820116820180604052508101906102f391906108bb565b915091507fdd970dd9b5bfe707922155b058a407655cb18288b807e2216442bca8ad83d6b5826040516103269190610bc4565b60405180910390a17fdd970dd9b5bfe707922155b058a407655cb18288b807e2216442bca8ad83d6b58160405161035d9190610bf2565b60405180910390a1505050505050565b8373ffffffffffffffffffffffffffffffffffffffff166323b872dd3330856040518463ffffffff1660e01b81526004016103aa93929190610a77565b602060405180830381600087803b1580156103c457600080fd5b505af11580156103d8573d6000803e3d6000fd5b505050506040513d601f19601f820116820180604052508101906103fc9190610869565b508273ffffffffffffffffffffffffffffffffffffffff166323b872dd3330846040518463ffffffff1660e01b815260040161043a93929190610a77565b602060405180830381600087803b15801561045457600080fd5b505af1158015610468573d6000803e3d6000fd5b505050506040513d601f19601f8201168201806040525081019061048c9190610869565b508373ffffffffffffffffffffffffffffffffffffffff1663095ea7b3737a250d5630b4cf539739df2c5dacb4c659f2488d846040518363ffffffff1660e01b81526004016104dc929190610b9b565b602060405180830381600087803b1580156104f657600080fd5b505af115801561050a573d6000803e3d6000fd5b505050506040513d601f19601f8201168201806040525081019061052e9190610869565b508273ffffffffffffffffffffffffffffffffffffffff1663095ea7b3737a250d5630b4cf539739df2c5dacb4c659f2488d836040518363ffffffff1660e01b815260040161057e929190610b9b565b602060405180830381600087803b15801561059857600080fd5b505af11580156105ac573d6000803e3d6000fd5b505050506040513d601f19601f820116820180604052508101906105d09190610869565b506000806000737a250d5630b4cf539739df2c5dacb4c659f2488d73ffffffffffffffffffffffffffffffffffffffff1663e8e337008888888860018030426040518963ffffffff1660e01b8152600401610632989796959493929190610b1d565b606060405180830381600087803b15801561064c57600080fd5b505af1158015610660573d6000803e3d6000fd5b505050506040513d601f19601f8201168201806040525081019061068491906108f7565b9250925092507fdd970dd9b5bfe707922155b058a407655cb18288b807e2216442bca8ad83d6b5836040516106b99190610bc4565b60405180910390a17fdd970dd9b5bfe707922155b058a407655cb18288b807e2216442bca8ad83d6b5826040516106f09190610bf2565b60405180910390a17fdd970dd9b5bfe707922155b058a407655cb18288b807e2216442bca8ad83d6b5816040516107279190610c20565b60405180910390a150505050505050565b60008135905061074781610cb9565b92915050565b60008151905061075c81610cb9565b92915050565b60008151905061077181610cd0565b92915050565b60008135905061078681610ce7565b92915050565b60008151905061079b81610ce7565b92915050565b6000602082840312156107b357600080fd5b60006107c18482850161074d565b91505092915050565b600080604083850312156107dd57600080fd5b60006107eb85828601610738565b92505060206107fc85828601610738565b9150509250929050565b6000806000806080858703121561081c57600080fd5b600061082a87828801610738565b945050602061083b87828801610738565b935050604061084c87828801610777565b925050606061085d87828801610777565b91505092959194509250565b60006020828403121561087b57600080fd5b600061088984828501610762565b91505092915050565b6000602082840312156108a457600080fd5b60006108b28482850161078c565b91505092915050565b600080604083850312156108ce57600080fd5b60006108dc8582860161078c565b92505060206108ed8582860161078c565b9150509250929050565b60008060006060848603121561090c57600080fd5b600061091a8682870161078c565b935050602061092b8682870161078c565b925050604061093c8682870161078c565b9150509250925092565b61094f81610c5f565b82525050565b61095e81610ca7565b82525050565b6000610971600783610c4e565b91507f616d6f756e7441000000000000000000000000000000000000000000000000006000830152602082019050919050565b60006109b1600783610c4e565b91507f616d6f756e7442000000000000000000000000000000000000000000000000006000830152602082019050919050565b60006109f1600983610c4e565b91507f6c697175696469747900000000000000000000000000000000000000000000006000830152602082019050919050565b610a2d81610c9d565b82525050565b6000602082019050610a486000830184610946565b92915050565b6000604082019050610a636000830185610946565b610a706020830184610946565b9392505050565b6000606082019050610a8c6000830186610946565b610a996020830185610946565b610aa66040830184610a24565b949350505050565b600060e082019050610ac3600083018a610946565b610ad06020830189610946565b610add6040830188610a24565b610aea6060830187610955565b610af76080830186610955565b610b0460a0830185610946565b610b1160c0830184610a24565b98975050505050505050565b600061010082019050610b33600083018b610946565b610b40602083018a610946565b610b4d6040830189610a24565b610b5a6060830188610a24565b610b676080830187610955565b610b7460a0830186610955565b610b8160c0830185610946565b610b8e60e0830184610a24565b9998505050505050505050565b6000604082019050610bb06000830185610946565b610bbd6020830184610a24565b9392505050565b60006040820190508181036000830152610bdd81610964565b9050610bec6020830184610a24565b92915050565b60006040820190508181036000830152610c0b816109a4565b9050610c1a6020830184610a24565b92915050565b60006040820190508181036000830152610c39816109e4565b9050610c486020830184610a24565b92915050565b600082825260208201905092915050565b6000610c6a82610c7d565b9050919050565b60008115159050919050565b600073ffffffffffffffffffffffffffffffffffffffff82169050919050565b6000819050919050565b6000610cb282610c9d565b9050919050565b610cc281610c5f565b8114610ccd57600080fd5b50565b610cd981610c71565b8114610ce457600080fd5b50565b610cf081610c9d565b8114610cfb57600080fd5b5056fea2646970667358221220f52bf416e8644944c97106c9f503163317d19aa8411441eee18ba7648d8af64c64736f6c63430008000033",
  "immutableReferences": {},
  "source": "// SPDX-License-Identifier: MIT\r\npragma solidity ^0.8;\r\n\r\nimport \"@openzeppelin/contracts/token/ERC20/IERC20.sol\";\r\nimport \"./interfaces.sol\";\r\n\r\ncontract TestUniswapLiquidity{\r\n  address private constant FACTORY = 0x5C69bEe701ef814a2B6a3EDD4B1652CB9cc5aA6f;\r\n  address private constant ROUTER = 0x7a250d5630B4cF539739dF2C5dAcb4c659F2488D;\r\n  address private constant WETH = 0xC02aaA39b223FE8D0A0e5C4F27eAD9083C756Cc2;\r\n\r\n  event Log(string message, uint val);\r\n\r\n  function addLiquidity(\r\n    address _tokenA,\r\n    address _tokenB,\r\n    uint _amountA,\r\n    uint _amountB\r\n  ) external {\r\n    IERC20(_tokenA).transferFrom(msg.sender, address(this), _amountA);\r\n    IERC20(_tokenB).transferFrom(msg.sender, address(this), _amountB);\r\n\r\n    IERC20(_tokenA).approve(ROUTER, _amountA);\r\n    IERC20(_tokenB).approve(ROUTER, _amountB);\r\n\r\n    (uint amountA, uint amountB, uint liquidity) =\r\n      IUniswapV2Router(ROUTER).addLiquidity(\r\n        _tokenA,\r\n        _tokenB,\r\n        _amountA,\r\n        _amountB,\r\n        1,\r\n        1,\r\n        address(this),\r\n        block.timestamp\r\n      );\r\n\r\n    emit Log(\"amountA\", amountA);\r\n    emit Log(\"amountB\", amountB);\r\n    emit Log(\"liquidity\", liquidity);\r\n  }\r\n\r\n  function removeLiquidity(address _tokenA, address _tokenB) external {\r\n    address pair = IUniswapV2Factory(FACTORY).getPair(_tokenA, _tokenB);\r\n\r\n    uint liquidity = IERC20(pair).balanceOf(address(this));\r\n    IERC20(pair).approve(ROUTER, liquidity);\r\n\r\n    (uint amountA, uint amountB) =\r\n      IUniswapV2Router(ROUTER).removeLiquidity(\r\n        _tokenA,\r\n        _tokenB,\r\n        liquidity,\r\n        1,\r\n        1,\r\n        address(this),\r\n        block.timestamp\r\n      );\r\n\r\n    emit Log(\"amountA\", amountA);\r\n    emit Log(\"amountB\", amountB);\r\n  }\r\n}",
  "sourcePath": "C:\\Users\\mared\\OneDrive\\Desktop\\dapps-ethereum\\contracts\\main.sol",
  "compiler": {
    "name": "solc",
    "version": "0.8.0+commit.c7dfd78e.Emscripten.clang"
  },
  "schemaVersion": "3.4.4",
  "updatedAt": "2022-02-16T20:49:57.370Z",
  "devdoc": {
    "kind": "dev",
    "methods": {},
    "version": 1
  },
  "userdoc": {
    "kind": "user",
    "methods": {},
    "version": 1
  }
}