{
  "contractName": "UniswapResolver",
  "abi": [
    {
      "anonymous": false,
      "inputs": [
        {
          "indexed": true,
          "internalType": "uint256",
          "name": "tokenId",
          "type": "uint256"
        },
        {
          "indexed": false,
          "internalType": "uint256",
          "name": "liquidity",
          "type": "uint256"
        },
        {
          "indexed": false,
          "internalType": "uint256",
          "name": "amountA",
          "type": "uint256"
        },
        {
          "indexed": false,
          "internalType": "uint256",
          "name": "amountB",
          "type": "uint256"
        }
      ],
      "name": "LogDeposit",
      "type": "event"
    },
    {
      "anonymous": false,
      "inputs": [
        {
          "indexed": true,
          "internalType": "uint256",
          "name": "tokenId",
          "type": "uint256"
        },
        {
          "indexed": false,
          "internalType": "uint256",
          "name": "liquidity",
          "type": "uint256"
        },
        {
          "indexed": false,
          "internalType": "uint256",
          "name": "amountA",
          "type": "uint256"
        },
        {
          "indexed": false,
          "internalType": "uint256",
          "name": "amountB",
          "type": "uint256"
        }
      ],
      "name": "LogWithdraw",
      "type": "event"
    },
    {
      "inputs": [
        {
          "internalType": "uint256",
          "name": "tokenId",
          "type": "uint256"
        },
        {
          "internalType": "uint256",
          "name": "amountA",
          "type": "uint256"
        },
        {
          "internalType": "uint256",
          "name": "amountB",
          "type": "uint256"
        },
        {
          "internalType": "uint256",
          "name": "slippage",
          "type": "uint256"
        },
        {
          "internalType": "uint256[]",
          "name": "getIds",
          "type": "uint256[]"
        },
        {
          "internalType": "uint256",
          "name": "setId",
          "type": "uint256"
        }
      ],
      "name": "deposit",
      "outputs": [
        {
          "internalType": "string",
          "name": "_eventName",
          "type": "string"
        },
        {
          "internalType": "bytes",
          "name": "_eventParam",
          "type": "bytes"
        }
      ],
      "stateMutability": "payable",
      "type": "function"
    },
    {
      "inputs": [
        {
          "internalType": "uint256",
          "name": "tokenId",
          "type": "uint256"
        },
        {
          "internalType": "uint256",
          "name": "liquidity",
          "type": "uint256"
        },
        {
          "internalType": "uint256",
          "name": "amountAMin",
          "type": "uint256"
        },
        {
          "internalType": "uint256",
          "name": "amountBMin",
          "type": "uint256"
        },
        {
          "internalType": "uint256",
          "name": "getId",
          "type": "uint256"
        },
        {
          "internalType": "uint256[]",
          "name": "setIds",
          "type": "uint256[]"
        }
      ],
      "name": "withdraw",
      "outputs": [
        {
          "internalType": "string",
          "name": "_eventName",
          "type": "string"
        },
        {
          "internalType": "bytes",
          "name": "_eventParam",
          "type": "bytes"
        }
      ],
      "stateMutability": "payable",
      "type": "function"
    }
  ],
  "bytecode": "0x608060405234801561001057600080fd5b50611af3806100206000396000f3fe6080604052600436106100295760003560e01c80630d7c8a021461002e578063f0234ea51461005f575b600080fd5b61004860048036038101906100439190610fb5565b610090565b604051610056929190611459565b60405180910390f35b6100796004803603810190610074919061105c565b6101b3565b604051610087929190611459565b60405180910390f35b60608060008914156100a8576100a5306102d2565b98505b6100f2858560008181106100e5577f4e487b7100000000000000000000000000000000000000000000000000000000600052603260045260246000fd5b9050602002013589610427565b975061013e85856001818110610131577f4e487b7100000000000000000000000000000000000000000000000000000000600052603260045260246000fd5b9050602002013588610427565b965060008060006101518c8c8c8c6104de565b925092509250610161868461052e565b6040518060600160405280602b8152602001611a93602b913994508b838383604051602001610193949392919061156f565b604051602081830303815290604052935050505097509795505050505050565b60608060008914156101cb576101c8306102d2565b98505b60006101d7868a610427565b90506000806101e88c848c8c6105bc565b9150915061023687876000818110610229577f4e487b7100000000000000000000000000000000000000000000000000000000600052603260045260246000fd5b905060200201358361052e565b61028087876001818110610273577f4e487b7100000000000000000000000000000000000000000000000000000000600052603260045260246000fd5b905060200201358261052e565b6040518060600160405280602c8152602001611a67602c913994508b8383836040516020016102b29493929190611501565b604051602081830303815290604052935050505097509795505050505050565b60008073c36442b4a4522e871399cd717abdd847ab11fe8873ffffffffffffffffffffffffffffffffffffffff166370a08231846040518263ffffffff1660e01b815260040161032291906113ec565b60206040518083038186803b15801561033a57600080fd5b505afa15801561034e573d6000803e3d6000fd5b505050506040513d601f19601f820116820180604052508101906103729190610f50565b905073c36442b4a4522e871399cd717abdd847ab11fe8873ffffffffffffffffffffffffffffffffffffffff16632f745c59846001846103b29190611849565b6040518363ffffffff1660e01b81526004016103cf929190611430565b60206040518083038186803b1580156103e757600080fd5b505afa1580156103fb573d6000803e3d6000fd5b505050506040513d601f19601f8201168201806040525081019061041f9190610f50565b915050919050565b60008083146104d457738a5419cfc711b2343c17a6abf4b2bafabb06957f73ffffffffffffffffffffffffffffffffffffffff1663a9c70eaa846040518263ffffffff1660e01b815260040161047d91906114e6565b602060405180830381600087803b15801561049757600080fd5b505af11580156104ab573d6000803e3d6000fd5b505050506040513d601f19601f820116820180604052508101906104cf9190610f50565b6104d6565b815b905092915050565b60008060008060006104ef896106ac565b915091506105018983838b8b8b610821565b826fffffffffffffffffffffffffffffffff16925080955081965082975050505050509450945094915050565b600082146105b857738a5419cfc711b2343c17a6abf4b2bafabb06957f73ffffffffffffffffffffffffffffffffffffffff166361e3c94483836040518363ffffffff1660e01b8152600401610585929190611546565b600060405180830381600087803b15801561059f57600080fd5b505af11580156105b3573d6000803e3d6000fd5b505050505b5050565b60008060006040518060a00160405280888152602001876fffffffffffffffffffffffffffffffff16815260200186815260200185815260200142815250905073c36442b4a4522e871399cd717abdd847ab11fe8873ffffffffffffffffffffffffffffffffffffffff16630c49ccbe826040518263ffffffff1660e01b815260040161064991906114b0565b6040805180830381600087803b15801561066257600080fd5b505af1158015610676573d6000803e3d6000fd5b505050506040513d601f19601f8201168201806040525081019061069a9190610f79565b80935081945050505094509492505050565b60008060008073c36442b4a4522e871399cd717abdd847ab11fe8873ffffffffffffffffffffffffffffffffffffffff166399fbab8860e01b866040516024016106f691906114e6565b604051602081830303815290604052907bffffffffffffffffffffffffffffffffffffffffffffffffffffffff19166020820180517bffffffffffffffffffffffffffffffffffffffffffffffffffffffff838183161783525050505060405161076091906113d5565b600060405180830381855afa9150503d806000811461079b576040519150601f19603f3d011682016040523d82523d6000602084013e6107a0565b606091505b5091509150816107e5576040517f08c379a00000000000000000000000000000000000000000000000000000000081526004016107dc90611490565b60405180910390fd5b808060200190518101906107f99190611103565b9091929394959650909192939495509091925090915090505080945081955050505050915091565b60008060006108328888888861093b565b600061083f898887610a25565b9050600061084e898888610a25565b905060006040518060c001604052808d81526020018a815260200189815260200184815260200183815260200142815250905073c36442b4a4522e871399cd717abdd847ab11fe8873ffffffffffffffffffffffffffffffffffffffff1663219f5d17826040518263ffffffff1660e01b81526004016108ce91906114cb565b606060405180830381600087803b1580156108e857600080fd5b505af11580156108fc573d6000803e3d6000fd5b505050506040513d601f19601f820116820180604052508101906109209190610f01565b80965081975082985050505050505096509650969350505050565b600073c02aaa39b223fe8d0a0e5c4f27ead9083c756cc273ffffffffffffffffffffffffffffffffffffffff168573ffffffffffffffffffffffffffffffffffffffff16149050600073c02aaa39b223fe8d0a0e5c4f27ead9083c756cc273ffffffffffffffffffffffffffffffffffffffff168573ffffffffffffffffffffffffffffffffffffffff161490506109d4828786610b5f565b6109df818685610b5f565b6109fe8673c36442b4a4522e871399cd717abdd847ab11fe8886610bcc565b610a1d8573c36442b4a4522e871399cd717abdd847ab11fe8885610bcc565b505050505050565b600080610aaf8573ffffffffffffffffffffffffffffffffffffffff1663313ce5676040518163ffffffff1660e01b815260040160206040518083038186803b158015610a7157600080fd5b505afa158015610a85573d6000803e3d6000fd5b505050506040513d601f19601f82011682018060405250810190610aa99190610f50565b85610d1c565b9050610acc81610ac7670de0b6b3a764000086610d48565b610d5c565b9150610b558573ffffffffffffffffffffffffffffffffffffffff1663313ce5676040518163ffffffff1660e01b815260040160206040518083038186803b158015610b1757600080fd5b505afa158015610b2b573d6000803e3d6000fd5b505050506040513d601f19601f82011682018060405250810190610b4f9190610f50565b83610da0565b9150509392505050565b8215610bc7578173ffffffffffffffffffffffffffffffffffffffff1663d0e30db0826040518263ffffffff1660e01b81526004016000604051808303818588803b158015610bad57600080fd5b505af1158015610bc1573d6000803e3d6000fd5b50505050505b505050565b8273ffffffffffffffffffffffffffffffffffffffff1663095ea7b383836040518363ffffffff1660e01b8152600401610c07929190611430565b600060405180830381600087803b158015610c2157600080fd5b505af1925050508015610c32575060015b610d16578273ffffffffffffffffffffffffffffffffffffffff1663095ea7b38360006040518363ffffffff1660e01b8152600401610c72929190611407565b600060405180830381600087803b158015610c8c57600080fd5b505af1158015610ca0573d6000803e3d6000fd5b505050508273ffffffffffffffffffffffffffffffffffffffff1663095ea7b383836040518363ffffffff1660e01b8152600401610cdf929190611430565b600060405180830381600087803b158015610cf957600080fd5b505af1158015610d0d573d6000803e3d6000fd5b50505050610d17565b5b505050565b6000610d4082846012610d2f9190611849565b600a610d3b91906116d1565b610dce565b905092915050565b6000610d548383610de2565b905092915050565b6000670de0b6b3a7640000610d8e610d748585610df8565b6002670de0b6b3a7640000610d89919061164d565b610e0e565b610d98919061164d565b905092915050565b6000826012610daf9190611849565b600a610dbb91906116d1565b82610dc6919061164d565b905092915050565b6000610dda8383610df8565b905092915050565b60008183610df09190611849565b905092915050565b60008183610e0691906117ef565b905092915050565b60008183610e1c91906115f7565b905092915050565b600081519050610e33816119dc565b92915050565b60008083601f840112610e4b57600080fd5b8235905067ffffffffffffffff811115610e6457600080fd5b602083019150836020820283011115610e7c57600080fd5b9250929050565b600081519050610e92816119f3565b92915050565b600081519050610ea781611a0a565b92915050565b600081519050610ebc81611a21565b92915050565b600081359050610ed181611a38565b92915050565b600081519050610ee681611a38565b92915050565b600081519050610efb81611a4f565b92915050565b600080600060608486031215610f1657600080fd5b6000610f2486828701610e98565b9350506020610f3586828701610ed7565b9250506040610f4686828701610ed7565b9150509250925092565b600060208284031215610f6257600080fd5b6000610f7084828501610ed7565b91505092915050565b60008060408385031215610f8c57600080fd5b6000610f9a85828601610ed7565b9250506020610fab85828601610ed7565b9150509250929050565b600080600080600080600060c0888a031215610fd057600080fd5b6000610fde8a828b01610ec2565b9750506020610fef8a828b01610ec2565b96505060406110008a828b01610ec2565b95505060606110118a828b01610ec2565b945050608088013567ffffffffffffffff81111561102e57600080fd5b61103a8a828b01610e39565b935093505060a061104d8a828b01610ec2565b91505092959891949750929550565b600080600080600080600060c0888a03121561107757600080fd5b60006110858a828b01610ec2565b97505060206110968a828b01610ec2565b96505060406110a78a828b01610ec2565b95505060606110b88a828b01610ec2565b94505060806110c98a828b01610ec2565b93505060a088013567ffffffffffffffff8111156110e657600080fd5b6110f28a828b01610e39565b925092505092959891949750929550565b600080600080600080600080610100898b03121561112057600080fd5b600061112e8b828c01610eec565b985050602061113f8b828c01610e24565b97505060406111508b828c01610e24565b96505060606111618b828c01610e24565b95505060806111728b828c01610ead565b94505060a06111838b828c01610e83565b93505060c06111948b828c01610e83565b92505060e06111a58b828c01610e98565b9150509295985092959890939650565b6111be8161187d565b82525050565b60006111cf826115b4565b6111d981856115ca565b93506111e981856020860161192d565b6111f2816119be565b840191505092915050565b6000611208826115b4565b61121281856115db565b935061122281856020860161192d565b80840191505092915050565b6112378161191b565b82525050565b6000611248826115bf565b61125281856115e6565b935061126281856020860161192d565b61126b816119be565b840191505092915050565b60006112836019836115e6565b91507f6665746368696e6720706f736974696f6e73206661696c6564000000000000006000830152602082019050919050565b60a0820160008201516112cc60008501826113b7565b5060208201516112df6020850182611399565b5060408201516112f260408501826113b7565b50606082015161130560608501826113b7565b50608082015161131860808501826113b7565b50505050565b60c08201600082015161133460008501826113b7565b50602082015161134760208501826113b7565b50604082015161135a60408501826113b7565b50606082015161136d60608501826113b7565b50608082015161138060808501826113b7565b5060a082015161139360a08501826113b7565b50505050565b6113a2816118ae565b82525050565b6113b1816118ae565b82525050565b6113c0816118f9565b82525050565b6113cf816118f9565b82525050565b60006113e182846111fd565b915081905092915050565b600060208201905061140160008301846111b5565b92915050565b600060408201905061141c60008301856111b5565b611429602083018461122e565b9392505050565b600060408201905061144560008301856111b5565b61145260208301846113c6565b9392505050565b60006040820190508181036000830152611473818561123d565b9050818103602083015261148781846111c4565b90509392505050565b600060208201905081810360008301526114a981611276565b9050919050565b600060a0820190506114c560008301846112b6565b92915050565b600060c0820190506114e0600083018461131e565b92915050565b60006020820190506114fb60008301846113c6565b92915050565b600060808201905061151660008301876113c6565b61152360208301866113a8565b61153060408301856113c6565b61153d60608301846113c6565b95945050505050565b600060408201905061155b60008301856113c6565b61156860208301846113c6565b9392505050565b600060808201905061158460008301876113c6565b61159160208301866113c6565b61159e60408301856113c6565b6115ab60608301846113c6565b95945050505050565b600081519050919050565b600081519050919050565b600082825260208201905092915050565b600081905092915050565b600082825260208201905092915050565b6000611602826118f9565b915061160d836118f9565b9250827fffffffffffffffffffffffffffffffffffffffffffffffffffffffffffffffff0382111561164257611641611960565b5b828201905092915050565b6000611658826118f9565b9150611663836118f9565b9250826116735761167261198f565b5b828204905092915050565b6000808291508390505b60018511156116c8578086048111156116a4576116a3611960565b5b60018516156116b35780820291505b80810290506116c1856119cf565b9450611688565b94509492505050565b60006116dc826118f9565b91506116e7836118f9565b92506117147fffffffffffffffffffffffffffffffffffffffffffffffffffffffffffffffff848461171c565b905092915050565b60008261172c57600190506117e8565b8161173a57600090506117e8565b8160018114611750576002811461175a57611789565b60019150506117e8565b60ff84111561176c5761176b611960565b5b8360020a91508482111561178357611782611960565b5b506117e8565b5060208310610133831016604e8410600b84101617156117be5782820a9050838111156117b9576117b8611960565b5b6117e8565b6117cb848484600161167e565b925090508184048111156117e2576117e1611960565b5b81810290505b9392505050565b60006117fa826118f9565b9150611805836118f9565b9250817fffffffffffffffffffffffffffffffffffffffffffffffffffffffffffffffff048311821515161561183e5761183d611960565b5b828202905092915050565b6000611854826118f9565b915061185f836118f9565b92508282101561187257611871611960565b5b828203905092915050565b6000611888826118ca565b9050919050565b600061189a826118ca565b9050919050565b60008160020b9050919050565b60006fffffffffffffffffffffffffffffffff82169050919050565b600073ffffffffffffffffffffffffffffffffffffffff82169050919050565b600062ffffff82169050919050565b6000819050919050565b60006bffffffffffffffffffffffff82169050919050565b6000611926826118f9565b9050919050565b60005b8381101561194b578082015181840152602081019050611930565b8381111561195a576000848401525b50505050565b7f4e487b7100000000000000000000000000000000000000000000000000000000600052601160045260246000fd5b7f4e487b7100000000000000000000000000000000000000000000000000000000600052601260045260246000fd5b6000601f19601f8301169050919050565b60008160011c9050919050565b6119e58161188f565b81146119f057600080fd5b50565b6119fc816118a1565b8114611a0757600080fd5b50565b611a13816118ae565b8114611a1e57600080fd5b50565b611a2a816118ea565b8114611a3557600080fd5b50565b611a41816118f9565b8114611a4c57600080fd5b50565b611a5881611903565b8114611a6357600080fd5b5056fe4c6f6757697468647261772875696e743235362c75696e743235362c75696e743235362c75696e74323536294c6f674465706f7369742875696e743235362c75696e743235362c75696e743235362c75696e7432353629a2646970667358221220eedffff797ca3b2601ebb322198484e0bdb0b92a62adbd1eaf9e5f5f48de32fb64736f6c63430008000033",
  "immutableReferences": {},
  "source": "// SPDX-License-Identifier: MIT\r\npragma solidity ^0.8.0;\r\npragma abicoder v2;\r\n\r\n/**\r\n * @title Uniswap v3.\r\n * @dev Decentralized Exchange.\r\n */\r\n\r\nimport {TokenInterface} from \"./common/interfaces.sol\";\r\nimport {Helpers} from \"./helpers.sol\";\r\nimport {Events} from \"./events.sol\";\r\n\r\ncontract UniswapResolver is Helpers, Events {\r\n\r\n     function deposit(\r\n        uint256 tokenId,\r\n        uint256 amountA,\r\n        uint256 amountB,\r\n        uint256 slippage,\r\n        uint256[] calldata getIds,\r\n        uint256 setId\r\n    )\r\n        external\r\n        payable\r\n        returns (string memory _eventName, bytes memory _eventParam)\r\n    {\r\n        if (tokenId == 0) tokenId = _getLastNftId(address(this));\r\n        amountA = getUint(getIds[0], amountA);\r\n        amountB = getUint(getIds[1], amountB);\r\n        (\r\n            uint256 _liquidity,\r\n            uint256 _amtA,\r\n            uint256 _amtB\r\n        ) = _addLiquidityWrapper(tokenId, amountA, amountB, slippage);\r\n        setUint(setId, _liquidity);\r\n\r\n        _eventName = \"LogDeposit(uint256,uint256,uint256,uint256)\";\r\n        _eventParam = abi.encode(tokenId, _liquidity, _amtA, _amtB);\r\n    }\r\n\r\n    /**\r\n     * @dev Decrease Liquidity\r\n     * @notice Decrease Liquidity of NFT Position\r\n     * @param tokenId NFT LP Token ID.\r\n     * @param liquidity LP Token amount.\r\n     * @param amountAMin Min amount of tokenA.\r\n     * @param amountBMin Min amount of tokenB.\r\n     * @param getId ID to retrieve LP token amounts\r\n     * @param setIds stores the amount of output tokens\r\n     */\r\n    function withdraw(\r\n        uint256 tokenId,\r\n        uint256 liquidity,\r\n        uint256 amountAMin,\r\n        uint256 amountBMin,\r\n        uint256 getId,\r\n        uint256[] calldata setIds\r\n    )\r\n        external\r\n        payable\r\n        returns (string memory _eventName, bytes memory _eventParam)\r\n    {\r\n        if (tokenId == 0) tokenId = _getLastNftId(address(this));\r\n        uint128 _liquidity = uint128(getUint(getId, liquidity));\r\n\r\n        (uint256 _amtA, uint256 _amtB) = _decreaseLiquidity(\r\n            tokenId,\r\n            _liquidity,\r\n            amountAMin,\r\n            amountBMin\r\n        );\r\n\r\n        setUint(setIds[0], _amtA);\r\n        setUint(setIds[1], _amtB);\r\n\r\n        _eventName = \"LogWithdraw(uint256,uint256,uint256,uint256)\";\r\n        _eventParam = abi.encode(tokenId, _liquidity, _amtA, _amtB);\r\n    }\r\n}\r\n\r\ncontract ConnectV2UniswapV3 is UniswapResolver {\r\n    string public constant name = \"UniswapV3-v1\";\r\n}",
  "sourcePath": "C:\\Users\\mared\\OneDrive\\Desktop\\dapps-ethereum\\contracts\\main.sol",
  "compiler": {
    "name": "solc",
    "version": "0.8.0+commit.c7dfd78e.Emscripten.clang"
  },
  "schemaVersion": "3.4.4",
  "updatedAt": "2022-02-08T09:42:43.424Z",
  "devdoc": {
    "kind": "dev",
    "methods": {
      "withdraw(uint256,uint256,uint256,uint256,uint256,uint256[])": {
        "details": "Decrease Liquidity",
        "params": {
          "amountAMin": "Min amount of tokenA.",
          "amountBMin": "Min amount of tokenB.",
          "getId": "ID to retrieve LP token amounts",
          "liquidity": "LP Token amount.",
          "setIds": "stores the amount of output tokens",
          "tokenId": "NFT LP Token ID."
        }
      }
    },
    "version": 1
  },
  "userdoc": {
    "kind": "user",
    "methods": {
      "withdraw(uint256,uint256,uint256,uint256,uint256,uint256[])": {
        "notice": "Decrease Liquidity of NFT Position"
      }
    },
    "version": 1
  }
}