{
  "contractName": "TestUniswapLiquidity",
  "abi": [
    {
      "anonymous": false,
      "inputs": [
        {
          "indexed": false,
          "internalType": "string",
          "name": "message",
          "type": "string"
        },
        {
          "indexed": false,
          "internalType": "uint256",
          "name": "val",
          "type": "uint256"
        }
      ],
      "name": "Log",
      "type": "event"
    },
    {
      "inputs": [
        {
          "internalType": "address",
          "name": "_tokenA",
          "type": "address"
        },
        {
          "internalType": "address",
          "name": "_tokenB",
          "type": "address"
        },
        {
          "internalType": "uint256",
          "name": "_amountA",
          "type": "uint256"
        },
        {
          "internalType": "uint256",
          "name": "_amountB",
          "type": "uint256"
        }
      ],
      "name": "addLiquidity",
      "outputs": [],
      "stateMutability": "nonpayable",
      "type": "function"
    },
    {
      "inputs": [
        {
          "internalType": "address",
          "name": "_tokenA",
          "type": "address"
        },
        {
          "internalType": "address",
          "name": "_tokenB",
          "type": "address"
        }
      ],
      "name": "removeLiquidity",
      "outputs": [],
      "stateMutability": "nonpayable",
      "type": "function"
    }
  ],
  "bytecode": "0x608060405234801561001057600080fd5b50610e9e806100206000396000f3fe608060405234801561001057600080fd5b50600436106100365760003560e01c80639cf38f7c1461003b578063cf6c62ea14610057575b600080fd5b610055600480360381019061005091906108c6565b610073565b005b610071600480360381019061006c9190610902565b610469565b005b6000735c69bee701ef814a2b6a3edd4b1652cb9cc5aa6f73ffffffffffffffffffffffffffffffffffffffff1663e6a4390584846040518363ffffffff1660e01b81526004016100c4929190610b8a565b60206040518083038186803b1580156100dc57600080fd5b505afa1580156100f0573d6000803e3d6000fd5b505050506040513d601f19601f82011682018060405250810190610114919061089d565b905060008173ffffffffffffffffffffffffffffffffffffffff166370a08231306040518263ffffffff1660e01b81526004016101519190610b6f565b60206040518083038186803b15801561016957600080fd5b505afa15801561017d573d6000803e3d6000fd5b505050506040513d601f19601f820116820180604052508101906101a1919061098e565b90508173ffffffffffffffffffffffffffffffffffffffff1663095ea7b3737a250d5630b4cf539739df2c5dacb4c659f2488d836040518363ffffffff1660e01b81526004016101f2929190610cd7565b602060405180830381600087803b15801561020c57600080fd5b505af1158015610220573d6000803e3d6000fd5b505050506040513d601f19601f820116820180604052508101906102449190610965565b50600080737a250d5630b4cf539739df2c5dacb4c659f2488d73ffffffffffffffffffffffffffffffffffffffff1663baa2abde87878660018030426040518863ffffffff1660e01b81526004016102a29796959493929190610bea565b6040805180830381600087803b1580156102bb57600080fd5b505af11580156102cf573d6000803e3d6000fd5b505050506040513d601f19601f820116820180604052508101906102f391906109b7565b9150915060008473ffffffffffffffffffffffffffffffffffffffff166370a08231306040518263ffffffff1660e01b81526004016103329190610b6f565b60206040518083038186803b15801561034a57600080fd5b505afa15801561035e573d6000803e3d6000fd5b505050506040513d601f19601f82011682018060405250810190610382919061098e565b90507fdd970dd9b5bfe707922155b058a407655cb18288b807e2216442bca8ad83d6b5836040516103b39190610d00565b60405180910390a17fdd970dd9b5bfe707922155b058a407655cb18288b807e2216442bca8ad83d6b5826040516103ea9190610d2e565b60405180910390a17fdd970dd9b5bfe707922155b058a407655cb18288b807e2216442bca8ad83d6b5846040516104219190610d5c565b60405180910390a17fdd970dd9b5bfe707922155b058a407655cb18288b807e2216442bca8ad83d6b5816040516104589190610d8a565b60405180910390a150505050505050565b8373ffffffffffffffffffffffffffffffffffffffff166323b872dd3330856040518463ffffffff1660e01b81526004016104a693929190610bb3565b602060405180830381600087803b1580156104c057600080fd5b505af11580156104d4573d6000803e3d6000fd5b505050506040513d601f19601f820116820180604052508101906104f89190610965565b508273ffffffffffffffffffffffffffffffffffffffff166323b872dd3330846040518463ffffffff1660e01b815260040161053693929190610bb3565b602060405180830381600087803b15801561055057600080fd5b505af1158015610564573d6000803e3d6000fd5b505050506040513d601f19601f820116820180604052508101906105889190610965565b508373ffffffffffffffffffffffffffffffffffffffff1663095ea7b3737a250d5630b4cf539739df2c5dacb4c659f2488d846040518363ffffffff1660e01b81526004016105d8929190610cd7565b602060405180830381600087803b1580156105f257600080fd5b505af1158015610606573d6000803e3d6000fd5b505050506040513d601f19601f8201168201806040525081019061062a9190610965565b508273ffffffffffffffffffffffffffffffffffffffff1663095ea7b3737a250d5630b4cf539739df2c5dacb4c659f2488d836040518363ffffffff1660e01b815260040161067a929190610cd7565b602060405180830381600087803b15801561069457600080fd5b505af11580156106a8573d6000803e3d6000fd5b505050506040513d601f19601f820116820180604052508101906106cc9190610965565b506000806000737a250d5630b4cf539739df2c5dacb4c659f2488d73ffffffffffffffffffffffffffffffffffffffff1663e8e337008888888860018030426040518963ffffffff1660e01b815260040161072e989796959493929190610c59565b606060405180830381600087803b15801561074857600080fd5b505af115801561075c573d6000803e3d6000fd5b505050506040513d601f19601f8201168201806040525081019061078091906109f3565b9250925092507fdd970dd9b5bfe707922155b058a407655cb18288b807e2216442bca8ad83d6b5836040516107b59190610d00565b60405180910390a17fdd970dd9b5bfe707922155b058a407655cb18288b807e2216442bca8ad83d6b5826040516107ec9190610d2e565b60405180910390a17fdd970dd9b5bfe707922155b058a407655cb18288b807e2216442bca8ad83d6b5816040516108239190610d5c565b60405180910390a150505050505050565b60008135905061084381610e23565b92915050565b60008151905061085881610e23565b92915050565b60008151905061086d81610e3a565b92915050565b60008135905061088281610e51565b92915050565b60008151905061089781610e51565b92915050565b6000602082840312156108af57600080fd5b60006108bd84828501610849565b91505092915050565b600080604083850312156108d957600080fd5b60006108e785828601610834565b92505060206108f885828601610834565b9150509250929050565b6000806000806080858703121561091857600080fd5b600061092687828801610834565b945050602061093787828801610834565b935050604061094887828801610873565b925050606061095987828801610873565b91505092959194509250565b60006020828403121561097757600080fd5b60006109858482850161085e565b91505092915050565b6000602082840312156109a057600080fd5b60006109ae84828501610888565b91505092915050565b600080604083850312156109ca57600080fd5b60006109d885828601610888565b92505060206109e985828601610888565b9150509250929050565b600080600060608486031215610a0857600080fd5b6000610a1686828701610888565b9350506020610a2786828701610888565b9250506040610a3886828701610888565b9150509250925092565b610a4b81610dc9565b82525050565b610a5a81610e11565b82525050565b6000610a6d600783610db8565b91507f616d6f756e7441000000000000000000000000000000000000000000000000006000830152602082019050919050565b6000610aad600783610db8565b91507f616d6f756e7442000000000000000000000000000000000000000000000000006000830152602082019050919050565b6000610aed600983610db8565b91507f6c697175696469747900000000000000000000000000000000000000000000006000830152602082019050919050565b6000610b2d600a83610db8565b91507f6c697175696469747931000000000000000000000000000000000000000000006000830152602082019050919050565b610b6981610e07565b82525050565b6000602082019050610b846000830184610a42565b92915050565b6000604082019050610b9f6000830185610a42565b610bac6020830184610a42565b9392505050565b6000606082019050610bc86000830186610a42565b610bd56020830185610a42565b610be26040830184610b60565b949350505050565b600060e082019050610bff600083018a610a42565b610c0c6020830189610a42565b610c196040830188610b60565b610c266060830187610a51565b610c336080830186610a51565b610c4060a0830185610a42565b610c4d60c0830184610b60565b98975050505050505050565b600061010082019050610c6f600083018b610a42565b610c7c602083018a610a42565b610c896040830189610b60565b610c966060830188610b60565b610ca36080830187610a51565b610cb060a0830186610a51565b610cbd60c0830185610a42565b610cca60e0830184610b60565b9998505050505050505050565b6000604082019050610cec6000830185610a42565b610cf96020830184610b60565b9392505050565b60006040820190508181036000830152610d1981610a60565b9050610d286020830184610b60565b92915050565b60006040820190508181036000830152610d4781610aa0565b9050610d566020830184610b60565b92915050565b60006040820190508181036000830152610d7581610ae0565b9050610d846020830184610b60565b92915050565b60006040820190508181036000830152610da381610b20565b9050610db26020830184610b60565b92915050565b600082825260208201905092915050565b6000610dd482610de7565b9050919050565b60008115159050919050565b600073ffffffffffffffffffffffffffffffffffffffff82169050919050565b6000819050919050565b6000610e1c82610e07565b9050919050565b610e2c81610dc9565b8114610e3757600080fd5b50565b610e4381610ddb565b8114610e4e57600080fd5b50565b610e5a81610e07565b8114610e6557600080fd5b5056fea2646970667358221220247cae9a851c8dedfb91c385e27bdcbf6c830abd342a5bf246a6420f8a1f857964736f6c63430008000033",
  "immutableReferences": {},
  "source": "// SPDX-License-Identifier: MIT\r\npragma solidity ^0.8;\r\n\r\nimport \"@openzeppelin/contracts/token/ERC20/IERC20.sol\";\r\nimport '@uniswap/v2-core/contracts/interfaces/IUniswapV2ERC20.sol';\r\nimport \"./interfaces.sol\";\r\n\r\ncontract TestUniswapLiquidity{\r\n  address private constant FACTORY = 0x5C69bEe701ef814a2B6a3EDD4B1652CB9cc5aA6f;\r\n  address private constant ROUTER = 0x7a250d5630B4cF539739dF2C5dAcb4c659F2488D;\r\n  address private constant WETH = 0xC02aaA39b223FE8D0A0e5C4F27eAD9083C756Cc2;\r\n\r\n  event Log(string message, uint val);\r\n\r\n  function addLiquidity(\r\n    address _tokenA,\r\n    address _tokenB,\r\n    uint _amountA,\r\n    uint _amountB\r\n  ) external {\r\n    IERC20(_tokenA).transferFrom(msg.sender, address(this), _amountA);\r\n    IERC20(_tokenB).transferFrom(msg.sender, address(this), _amountB);\r\n\r\n    IERC20(_tokenA).approve(ROUTER, _amountA);\r\n    IERC20(_tokenB).approve(ROUTER, _amountB);\r\n\r\n    (uint amountA, uint amountB, uint liquidity) =\r\n      IUniswapV2Router(ROUTER).addLiquidity(\r\n        _tokenA,\r\n        _tokenB,\r\n        _amountA,\r\n        _amountB,\r\n        1,\r\n        1,\r\n        address(this),\r\n        block.timestamp\r\n      );\r\n\r\n    emit Log(\"amountA\", amountA);\r\n    emit Log(\"amountB\", amountB);\r\n    emit Log(\"liquidity\", liquidity);\r\n  }\r\n\r\n  function removeLiquidity(address _tokenA, address _tokenB) external {\r\n    address pair = IUniswapV2Factory(FACTORY).getPair(_tokenA, _tokenB);\r\n\r\n    uint liquidity = IERC20(pair).balanceOf(address(this));\r\n    IERC20(pair).approve(ROUTER, liquidity);\r\n\r\n    (uint amountA, uint amountB) =\r\n      IUniswapV2Router(ROUTER).removeLiquidity(\r\n        _tokenA,\r\n        _tokenB,\r\n        liquidity,\r\n        1,\r\n        1,\r\n        address(this),\r\n        block.timestamp\r\n      );\r\n      uint liquidity1 = IERC20(pair).balanceOf(address(this));\r\n\r\n    emit Log(\"amountA\", amountA);\r\n    emit Log(\"amountB\", amountB);\r\n   emit Log(\"liquidity\",liquidity);\r\n   emit Log(\"liquidity1\",liquidity1);\r\n    \r\n  }\r\n  \r\n \r\n}",
  "sourcePath": "C:\\Users\\mared\\OneDrive\\Desktop\\dapps-ethereum\\contracts\\Uniswap_v2\\main.sol",
  "compiler": {
    "name": "solc",
    "version": "0.8.0+commit.c7dfd78e.Emscripten.clang"
  },
  "schemaVersion": "3.4.4",
  "updatedAt": "2022-02-23T18:03:01.773Z",
  "devdoc": {
    "kind": "dev",
    "methods": {},
    "version": 1
  },
  "userdoc": {
    "kind": "user",
    "methods": {},
    "version": 1
  }
}